:0400000007EF00F016
:0A0008004E824DED1EF027EF1FF0B1
:100800000052706D203A20252E30660D00494E466C
:10081000004E414E00696E66006E616E006C6600AF
:0108200000D7
:10082200000E0001B46F000EB36F8FC0C5F090C010
:10083200C6F091C0C7F092C0C8F0C8BF25EF04F05F
:1008420023EF04F03BEF04F0000EB46F010EB36F20
:10085200C5C011F0C6C012F0C7C013F0C8C014F072
:10086200D4EC1EF011C0C5F012C0C6F013C0C7F020
:1008720014C0C8F0000E0001CC6F000ECB6FF7C0A1
:10088200B7F0F8C0B8F0B351B411D8A44BEF04F0EC
:100892004DEF04F054EF04F04CA452EF04F054EF87
:1008A20004F06EEF04F0B351B411D8A45BEF04F07E
:1008B2005DEF04F063EF04F0000E9A6F2B0E996F58
:1008C20067EF04F0000E9A6F2D0E996F99C000F138
:1008D200CB4BCC2BB707D8A0B807C5C011F0C6C008
:1008E20012F0C7C013F0C8C014F07EEC19F0110466
:1008F2001210D8A47FEF04F081EF04F0D8EF04F0D7
:10090200BF0E0001946FFF0E956F9351966F976B18
:10091200945196279551972397510AE11A0E965DA5
:10092200D8A096EF04F099EF04F0010E9AEF04F0CC
:10093200000E9B6F9C6B9B519C11D8B4A3EF04F0EB
:10094200A5EF04F0B3EF04F0000ECB25116E010EFB
:10095200CC21126E0D0E136E080E146E7CEC1DF07F
:10096200BFEF04F0000ECB25116E010ECC21126EEA
:10097200150E136E080E146E7CEC1DF00001FD0EB8
:10098200B727FF0EB8238DC021F08EC022F0000ED3
:10099200236E010E246EB7C025F0B8C026F02FECEE
:1009A2001BF021C08DF022C08EF040EF0AF0C5C0CE
:1009B20011F0C6C012F0C7C013F0C8C014F07EEC2C
:1009C20019F011501210D8A4E9EF04F0EBEF04F083
:1009D2002BEF05F0BF0E0001946FFF0E956F935140
:1009E200966F976B945196279551972397510AE1E9
:1009F2001A0E965DD8A000EF05F003EF05F0010E88
:100A020004EF05F0000E9D6F9E6B9D519E11D8B4B0
:100A12000DEF05F00FEF05F01DEF05F0000ECB25F1
:100A2200116E010ECC21126E110E136E080E146E91
:100A32007CEC1DF0BFEF04F0000ECB25116E010E11
:100A4200CC21126E190E136E080E146E7CEC1DF082
:100A5200BFEF04F0000E0001CD6F000ECE6F800ECE
:100A6200CF6F3F0ED06F000ECA6F000EC96FC5C0A8
:100A720011F0C6C012F0C7C013F0C8C014F0000EC7
:100A8200156E000E166E000E176E000E186EE8EC54
:100A92001BF0D8B04FEF05F051EF05F0D6EF05F09F
:100AA20070EF05F0CDC025F0CEC026F0CFC027F004
:100AB200D0C028F0000E296E000E2A6E200E2B6E7A
:100AC200410E2C6E38EC11F025C0CDF026C0CEF0D0
:100AD20027C0CFF028C0D0F00001C94BCA2BC5C037
:100AE20060F0C6C061F0C7C062F0C8C063F0000E1B
:100AF200296E000E2A6E200E2B6E410E2C6ECDC07A
:100B020025F0CEC026F0CFC027F0D0C028F038ECB8
:100B120011F025C064F026C065F027C066F028C039
:100B220067F0FBEC18F00001D8B09AEF05F09CEFEB
:100B320005F053EF05F0BCEF05F0CDC060F0CEC07C
:100B420061F0CFC062F0D0C063F0000E646F000E9F
:100B5200656F200E666F410E676F4DEC13F060C03B
:100B6200CDF061C0CEF062C0CFF063C0D0F0000122
:100B7200C907D8A0CA07C5C060F0C6C061F0C7C027
:100B820062F0C8C063F0CDC064F0CEC065F0CFC0E3
:100B920066F0D0C067F0FBEC18F00001D8A0D4EFEB
:100BA20005F0D6EF05F09EEF05F093C017F0186A36
:100BB2004CEC1DF017500001BA6FBAC0B9F0670EC5
:100BC200BA19D8A4E7EF05F0E9EF05F00FEF06F048
:100BD200F951FA11D8A4F0EF05F0F2EF05F0F6EFB3
:100BE20005F0000EFA6F010EF96FFABF03EF06F07F
:100BF200FA5106E1F905D8B001EF06F003EF06F06D
:100C020009EF06F0000EB66F060EB56F18EF06F08C
:100C1200F9C0B5F0FAC0B6F018EF06F0FABF14EF5B
:100C220006F016EF06F003EF06F009EF06F0670E86
:100C3200BA19D8A41FEF06F021EF06F050EF06F024
:100C4200CAAF2FEF06F0FC0EC95DFF0ECA59D8A03D
:100C52002DEF06F02FEF06F04EEF06F0FF0E946F29
:100C6200FF0E956FB5C096F0B6C097F094519627D7
:100C720095519723C951965D9751800A986FCA5131
:100C8200800A9859D8A048EF06F04AEF06F04EEFD6
:100C920006F0660EB96F50EF06F0650EB96FB5C07B
:100CA200ABF0B6C0ACF0670EBA19D8A45BEF06F091
:100CB2005DEF06F06DEF06F0660EB919D8A464EF89
:100CC20006F066EF06F06FEF06F0CABF6DEF06F0B2
:100CD2006BEF06F06FEF06F0AB4BAC2B660EB9195B
:100CE200D8A476EF06F078EF06F098EF06F0CABFC8
:100CF2007FEF06F07DEF06F08BEF06F0000ECD6F72
:100D0200000ECE6F800ECF6F3F0ED06F000ECA6FF7
:100D1200000EC96F670EBA19D8B492EF06F094EFBD
:100D220006F098EF06F0C951AB27CA51AC23000E6A
:100D3200C46F000EC36FC5C0BBF0C6C0BCF0C7C055
:100D4200BDF0C8C0BEF0CDC0ADF0CEC0AEF0CFC0D9
:100D5200AFF0D0C0B0F02AEF07F0BBC060F0BCC06B
:100D620061F0BDC062F0BEC063F0CDC064F0CEC021
:100D720065F0CFC066F0D0C067F04DEC13F060C0F4
:100D820079F061C07AF062C07BF063C07CF01BEC4A
:100D920015F079C0BFF07AC0C0F07BC0C1F07CC052
:100DA200C2F0BFC079F0C0C07AF0C1C07BF0C2C04F
:100DB2007CF077EC18F079C0B1F07AC0B2F0BBC029
:100DC20060F0BCC061F0BDC062F0BEC063F0CDC0D7
:100DD20029F0CEC02AF0CFC02BF0D0C02CF0BFC07B
:100DE20025F0C0C026F0C1C027F0C2C028F038EC00
:100DF20011F025C064F026C065F027C066F028C057
:100E020067F072EC1EF060C0BBF061C0BCF062C063
:100E1200BDF063C0BEF0CDC060F0CEC061F0CFC007
:100E220062F0D0C063F0000E0001646F000E656FC7
:100E3200200E666F410E676F4DEC13F060C0CDF06F
:100E420061C0CEF062C0CFF063C0D0F00001C34BEE
:100E5200C42BAB51C35DC451800A946FAC51800A5C
:100E62009459D8A037EF07F039EF07F0AEEF06F04C
:100E7200CDC025F0CEC026F0CFC027F0D0C028F0DC
:100E8200000E296E000E2A6EA00E2B6E400E2C6EE6
:100E920038EC11F025C0BFF026C0C0F027C0C1F069
:100EA20028C0C2F0BBC060F0BCC061F0BDC062F03F
:100EB200BEC063F0BFC064F0C0C065F0C1C066F0E0
:100EC200C2C067F0FBEC18F00001D8B06BEF07F07E
:100ED2006DEF07F077EF07F0000EBF6F000EC06FE7
:100EE200000EC16F000EC26FA0EF07F0BBC011F081
:100EF200BCC012F0BDC013F0BEC014F0BFC015F0EC
:100F0200C0C016F0C1C017F0C2C018F0E8EC1BF068
:100F1200D8A08EEF07F090EF07F0A0EF07F00001E6
:100F2200B1B196EF07F098EF07F0A0EF07F0000ECF
:100F3200BF6F000EC06F000EC16F000EC26FC5C042
:100F420011F0C6C012F0C7C013F0C8C014F0BFC081
:100F520015F0C0C016F0C1C017F0C2C018F041ECC5
:100F62000AF011C0BBF012C0BCF013C0BDF014C037
:100F7200BEF0BBC060F0BCC061F0BDC062F0BEC0DC
:100F820063F0000E296E000E2A6E200E2B6E410EAB
:100F92002C6EADC025F0AEC026F0AFC027F0B0C0B9
:100FA20028F038EC11F025C064F026C065F027C0A7
:100FB20066F028C067F0FBEC18F00001D8A0E4EF5F
:100FC20007F0E6EF07F00EEF08F0C94BCA2BADC0F1
:100FD20025F0AEC026F0AFC027F0B0C028F0000E5A
:100FE200296E000E2A6E200E2B6E410E2C6E38ECEE
:100FF20011F025C0ADF026C0AEF027C0AFF028C07A
:10100200B0F0660E0001B919D8A40AEF08F00CEF8F
:1010120008F00EEF08F0AB4BAC2BADC0CDF0AEC07C
:10102200CEF0AFC0CFF0B0C0D0F0650EB919D8B4D1
:101032001DEF08F01FEF08F025EF08F0C9C0A9F076
:10104200CAC0AAF029EF08F0000EAA6F000EA96F1D
:10105200000EA86F000EA76F000EA66F000EA56F00
:10106200000EC46F000EC36F26EF09F0BBC060F024
:10107200BCC061F0BDC062F0BEC063F0CDC064F020
:10108200CEC065F0CFC066F0D0C067F04DEC13F073
:1010920060C079F061C07AF062C07BF063C07CF01E
:1010A2001BEC15F079C0BFF07AC0C0F07BC0C1F074
:1010B2007CC0C2F0BFC079F0C0C07AF0C1C07BF082
:1010C200C2C07CF077EC18F079C0B1F07AC0B2F00F
:1010D2004CB86EEF08F070EF08F08EEF08F00001E8
:1010E200B151B211D8A478EF08F07AEF08F08EEF80
:1010F20008F0670EBA19D8A481EF08F083EF08F060
:101102008EEF08F0AABF8AEF08F088EF08F08EEFA2
:1011120008F0A54BA62BD9EF08F00001A751A811A2
:10112200D8A496EF08F098EF08F0C2EF08F0AABF33
:101132009FEF08F09DEF08F0C2EF08F0000ECB25FC
:10114200D96E010ECC21DA6E2E0EDF6ECB4BCC2B7C
:10115200B707D8A0B807000EA86F010EA76FC2EF9D
:1011620008F0000ECB25D96E010ECC21DA6E300EBE
:10117200DF6ECB4BCC2BB707D8A0B807A507D8A0FA
:10118200A607A551A611D8A4C9EF08F0CBEF08F025
:10119200B2EF08F0000ECB25D96E010ECC21DA6E2B
:1011A200B151300FDF6ECB4BCC2BB707D8A0B807AD
:1011B200BBC060F0BCC061F0BDC062F0BEC063F0F5
:1011C200CDC029F0CEC02AF0CFC02BF0D0C02CF079
:1011D200BFC025F0C0C026F0C1C027F0C2C028F0B1
:1011E20038EC11F025C064F026C065F027C066F027
:1011F20028C067F072EC1EF060C0BBF061C0BCF0AA
:1012020062C0BDF063C0BEF0CDC060F0CEC061F080
:10121200CFC062F0D0C063F0000E0001646F000E18
:10122200656F200E666F410E676F4DEC13F060C064
:10123200CDF061C0CEF062C0CFF063C0D0F000014B
:10124200A907D8A0AA07C34BC42BAB51C35DC45195
:10125200800A946FAC51800A9459D8B033EF09F0E8
:1012620035EF09F043EF09F0CCBF41EF09F0CC5163
:1012720009E14B0ECB5DD8A041EF09F043EF09F035
:1012820037EF08F0A751A811D8A44AEF09F04CEFA4
:1012920009F05DEF09F04CA851EF09F053EF09F0A6
:1012A2005DEF09F0000ECB25D96E010ECC21DA6E6E
:1012B2002E0EDF6ECB4BCC2B000ECB25D96E010E42
:1012C200CC21DA6E000EDF6E650EB919D8A46CEF70
:1012D20009F06EEF09F0C4EF04F0000EC46F4F0E78
:1012E200C36F000EC325D96E010EC421DA6E000E43
:1012F200DF6E000EB46F000EB36FCABF85EF09F048
:1013020083EF09F08DEF09F0000EB46F010EB36F99
:10131200C96DCA1FD8B0CA2B000EB66F020EB56FC8
:10132200BEEF09F0C307D8A0C407000EC325D96ECB
:10133200010EC421DA6EC9C011F0CAC012F0000E4B
:10134200146E0A0E136E90EC1BF01150300FDF6E0C
:10135200C9C011F0CAC012F0000E146E0A0E136E4C
:10136200CDEC1AF011C0C9F012C0CAF00001B507E5
:10137200D8A0B607B707D8A0B807C951CA11D8A4D0
:10138200C5EF09F0C7EF09F093EF09F0B6BFD4EF4C
:1013920009F0B65106E1B505D8B0D2EF09F0D4EFA5
:1013A20009F093EF09F0C307D8A0C407B351B411F1
:1013B200D8A4DEEF09F0E0EF09F0E6EF09F0000E45
:1013C200A06F2B0E9F6FEAEF09F0000EA06F2D0E9B
:1013D2009F6F000EC325D96E010EC421DA6E9FC025
:1013E200DFFFB707D8A0B807C307D8A0C407BF0E4E
:1013F200946FFF0E956F9351966F976B945196274A
:101402009551972397510AE11A0E965DD8A00CEFD9
:101412000AF00FEF0AF0010E10EF0AF0000EA36FB0
:10142200A46BA351A411D8A419EF0AF01BEF0AF080
:1014320021EF0AF0000EA26F650EA16F25EF0AF0F0
:10144200000EA26F450EA16F000EC325D96E010ECC
:10145200C421DA6EA1C0DFFFB707D8A0B807000E1B
:10146200CB25116E010ECC21126E000EC325136E18
:10147200010EC421146E7CEC1DF0C4EF04F01200C6
:101482001450800B1D6E145014241F6E13AE4CEFBB
:101492000AF04EEF0AF04FEF0AF01F801F50D8B447
:1014A20055EF0AF057EF0AF06CEF0AF01F28D8A4A4
:1014B2005DEF0AF05FEF0AF067EF0AF0000E116EBF
:1014C200000E126E000E136E000E146E138E000EBE
:1014D200146E74EF0AF0000E116E000E126E000E02
:1014E200136E000E146E1850800B1E6E1D501E18C7
:1014F200D8B47EEF0AF080EF0AF081EF0AF01D8C7B
:10150200185018241E6E17AE89EF0AF08BEF0AF0FE
:101512008CEF0AF01E801E50D8B492EF0AF094EFBE
:101522000AF0A9EF0AF01E28D8A49AEF0AF09CEF5D
:101532000AF0A4EF0AF0000E156E000E166E000EF1
:10154200176E000E186E178E000E186EB1EF0AF0AD
:10155200000E156E000E166E000E176E000E186E3F
:101562001F501E5CD8B0B8EF0AF0BAEF0AF0E1EFF4
:101572000AF01DACBFEF0AF0C1EF0AF0C3EF0AF0A8
:10158200800E1D1A1FC020F01EC01FF020C01EF0CA
:1015920011C020F015C011F020C015F012C020F0CB
:1015A20016C012F020C016F013C020F017C013F0BE
:1015B20020C017F014C020F018C014F020C018F09A
:1015C200000E206E1F501EC019F01A6A195E000E1E
:1015D2001A5A1ABEF6EF0AF01A5009E11A0E195CED
:1015E200D8A0F6EF0AF0F8EF0AF02FEF0BF0115047
:1015F200121013101410D8A401EF0BF004EF0BF02B
:10160200010E05EF0BF0000E206E000E116E000EA3
:10161200126E000E136E000E146E1EC01FF038EF15
:101622000BF020A017EF0BF019EF0BF01FEF0BF0F0
:10163200D89020300109206E21EF0BF0D890203293
:1016420011A026EF0BF028EF0BF029EF0BF0208E04
:10165200143414321332123211321F2A1E501F5CFC
:10166200D8A036EF0BF038EF0BF012EF0BF01DBCE9
:101672003DEF0BF03FEF0BF07FEF0BF01F50D8A4C4
:1016820045EF0BF047EF0BF051EF0BF0000E116E30
:10169200000E126E000E136E000E146EA0EF0CF010
:1016A20015501126165012221750132218501422C8
:1016B20014A05EEF0BF060EF0BF00CEF0CF020A02B
:1016C20065EF0BF067EF0BF06DEF0BF0D890203069
:1016D2000109206E6FEF0BF0D890203211A074EF49
:1016E2000BF076EF0BF077EF0BF0208E1434143200
:1016F2001332123211321F2A0CEF0CF01550115C0A
:1017020016501258175013581450800A196E185058
:10171200800A1958D8B090EF0BF092EF0BF0BDEFA2
:101722000BF01150155C196E125016581A6E1350A8
:1017320017581B6E145018581C6EFF0E1924116E88
:10174200FF0E1A20126EFF0E1B20136EFF0E1C20BE
:10175200146E800E1D1A206C2050D8A4B3EF0BF02B
:10176200B5EF0BF0C5EF0BF0010E1126000E1222A1
:1017720013221422C5EF0BF01550115E1650125AA7
:101782001750135A1850145A1150121013101410E3
:10179200D8A4CEEF0BF0D0EF0BF005EF0CF02050F9
:1017A200D8A4D6EF0BF0D8EF0BF005EF0CF0000E3B
:1017B200116E000E126E000E136E000E146EA0EF6C
:1017C2000CF0D890113612361336143620AEECEFE8
:1017D2000BF0EEEF0BF0EFEF0BF0118020A0F4EF27
:1017E2000BF0F6EF0BF0FAEF0BF0D8802036FCEF9F
:1017F2000BF0D89020361F50D8B402EF0CF004EF53
:101802000CF005EF0CF01F0613AE0AEF0CF00CEF14
:101812000CF0E2EF0BF0000E1E6E20AE13EF0CF098
:1018220015EF0CF02DEF0CF020C019F07F0E1916F9
:10183200D8B41EEF0CF020EF0CF024EF0CF0010EE8
:101842001E6E2DEF0CF011A029EF0CF02BEF0CF017
:101852002DEF0CF020EF0CF01E50D8B433EF0CF04B
:1018620035EF0CF060EF0CF0010E1126000E122283
:101872001322142214A040EF0CF042EF0CF060EFA0
:101882000CF011C019F012C01AF013C01BF014C0F2
:101892001CF01C341C321B321A32193219C011F0DE
:1018A2001AC012F01BC013F01CC014F01F28D8B4C9
:1018B2005DEF0CF05FEF0CF060EF0CF01F2A1F28B9
:1018C200D8B466EF0CF068EF0CF070EF0CF01F501C
:1018D200D8A46EEF0CF070EF0CF082EF0CF0000E5B
:1018E200116E000E126E000E136E000E146E1F505B
:1018F200D8A47EEF0CF080EF0CF082EF0CF0000E1B
:101902001D6E1FA087EF0CF089EF0CF08CEF0CF02E
:10191200138E8DEF0CF0139ED8901F30146E1DAEF7
:1019220095EF0CF097EF0CF098EF0CF0148E11C0BD
:1019320011F012C012F013C013F014C014F0120010
:101942000450800B0D6E045004240F6E03AEACEFF6
:101952000CF0AEEF0CF0AFEF0CF00F800F50D8B4DC
:10196200B5EF0CF0B7EF0CF0CCEF0CF00F28D8A4C9
:10197200BDEF0CF0BFEF0CF0C7EF0CF0000E016EE4
:10198200000E026E000E036E000E046E038E000E39
:10199200046ED4EF0CF0000E016E000E026E000E0B
:1019A200036E000E046E0850800B0E6E0D500E1862
:1019B200D8B4DEEF0CF0E0EF0CF0E1EF0CF00D8CA0
:1019C200085008240E6E07AEE9EF0CF0EBEF0CF0B6
:1019D200ECEF0CF00E800E50D8B4F2EF0CF0F4EFF6
:1019E2000CF009EF0DF00E28D8A4FAEF0CF0FCEF82
:1019F2000CF004EF0DF0000E056E000E066E000EE8
:101A0200076E000E086E078E000E086E11EF0DF0C5
:101A1200000E056E000E066E000E076E000E086EBA
:101A22000F500E5CD8B018EF0DF01AEF0DF041EF29
:101A32000DF00DAC1FEF0DF021EF0DF023EF0DF0C7
:101A4200800E0D1A0FC010F00EC00FF010C00EF075
:101A520001C010F005C001F010C005F002C010F086
:101A620006C002F010C006F003C010F007C003F079
:101A720010C007F004C010F008C004F010C008F055
:101A8200000E106E0F500EC009F00A6A095E000EB9
:101A92000A5A0ABE56EF0DF00A5009E11A0E095C05
:101AA200D8A056EF0DF058EF0DF08FEF0DF001506A
:101AB200021003100410D8A461EF0DF064EF0DF0D2
:101AC200010E65EF0DF0000E106E000E016E000E9D
:101AD200026E000E036E000E046E0EC00FF098EF41
:101AE2000DF010A077EF0DF079EF0DF07FEF0DF014
:101AF200D89010300109106E81EF0DF0D89010329D
:101B020001A086EF0DF088EF0DF089EF0DF0108E39
:101B1200043404320332023201320F2A0E500F5CB7
:101B2200D8A096EF0DF098EF0DF072EF0DF00DBC0E
:101B32009DEF0DF09FEF0DF0DFEF0DF00F50D8A4E9
:101B4200A5EF0DF0A7EF0DF0B1EF0DF0000E016E55
:101B5200000E026E000E036E000E046E00EF0FF018
:101B62000550012606500222075003220850042283
:101B720004A0BEEF0DF0C0EF0DF06CEF0EF010A060
:101B8200C5EF0DF0C7EF0DF0CDEF0DF0D89010308E
:101B92000109106ECFEF0DF0D890103201A0D4EFF2
:101BA2000DF0D6EF0DF0D7EF0DF0108E04340432A5
:101BB2000332023201320F2A6CEF0EF00550015C43
:101BC20006500258075003580450800A096E085004
:101BD200800A0958D8B0F0EF0DF0F2EF0DF01DEFCA
:101BE2000EF00150055C096E025006580A6E035051
:101BF20007580B6E045008580C6EFF0E0924016E34
:101C0200FF0E0A20026EFF0E0B20036EFF0E0C2049
:101C1200046E800E0D1A106C1050D8A413EF0EF043
:101C220015EF0EF025EF0EF0010E0126000E022236
:101C32000322042225EF0EF00550015E0650025ADF
:101C42000750035A0850045A01500210031004109E
:101C5200D8A42EEF0EF030EF0EF065EF0EF010501C
:101C6200D8A436EF0EF038EF0EF065EF0EF0000E4E
:101C7200016E000E026E000E036E000E046E00EF87
:101C82000FF0D890013602360336043610AE4CEF10
:101C92000EF04EEF0EF04FEF0EF0018010A054EF59
:101CA2000EF056EF0EF05AEF0EF0D88010365CEFC1
:101CB2000EF0D89010360F50D8B462EF0EF064EFE9
:101CC2000EF065EF0EF00F0603AE6AEF0EF06CEF4A
:101CD2000EF042EF0EF0000E0E6E10AE73EF0EF02D
:101CE20075EF0EF08DEF0EF010C009F07F0E0916A1
:101CF200D8B47EEF0EF080EF0EF084EF0EF0010EFE
:101D02000E6E8DEF0EF001A089EF0EF08BEF0EF04C
:101D12008DEF0EF080EF0EF00E50D8B493EF0EF070
:101D220095EF0EF0C0EF0EF0010E0126000E02221A
:101D32000322042204A0A0EF0EF0A2EF0EF0C0EFE7
:101D42000EF001C009F002C00AF003C00BF004C09B
:101D52000CF00C340C320B320A32093209C001F099
:101D62000AC002F00BC003F00CC004F00F28D8B474
:101D7200BDEF0EF0BFEF0EF0C0EF0EF00F2A0F28EE
:101D8200D8B4C6EF0EF0C8EF0EF0D0EF0EF00F5041
:101D9200D8A4CEEF0EF0D0EF0EF0E2EF0EF0000E70
:101DA200016E000E026E000E036E000E046E0F50E6
:101DB200D8A4DEEF0EF0E0EF0EF0E2EF0EF0000E30
:101DC2000D6E0FA0E7EF0EF0E9EF0EF0ECEF0EF064
:101DD200038EEDEF0EF0039ED8900F30046E0DAE21
:101DE200F5EF0EF0F7EF0EF0F8EF0EF0048E01C0F3
:101DF20001F002C002F003C003F004C004F01200BC
:101E0200D3C0D9FFD4C0DAFFDECFF6FFDDCFF7FFB4
:101E12000800F550250AD8A411EF0FF013EF0FF0C8
:101E22001CEF11F0D3C0D9FFD4C0DAFFDE2A000EB6
:101E3200DD22000E0001F86F000EF76FF7C04CF0C4
:101E4200F8C04DF0F969FA69D3C0D9FFD4C0DAFFFE
:101E5200DECFF6FFDDCFF7FF0800F5502E0AD8A43B
:101E620035EF0FF037EF0FF0B5EF0FF0000EFA6F0E
:101E7200000EF96FD3C0D9FFD4C0DAFFDE2A000EFC
:101E8200DD22D3C0D9FFD4C0DAFFDECFF6FFDDCF2B
:101E9200F7FF0800F5502A0AD8A452EF0FF054EFCA
:101EA2000FF071EF0FF0D3C0D9FFD4C0DAFFDE2AF2
:101EB200000EDD22D5C0D9FFD6C0DAFFDFCFD7F0C2
:101EC200020EDE26DFCFD8F0000EDD22D7C0D9FF0A
:101ED200D8C0DAFFDECFF9F0DDCFFAF0B5EF0FF0C0
:101EE200D3C0D9FFD4C0DAFFDECF18F0DDCF19F0AE
:101EF20000EC17F018C0F9F019C0FAF088EF0FF0F3
:101F0200D3C0D9FFD4C0DAFFDE2A000EDD22D00E04
:101F12000001D76FFF0ED86FD3C0D9FFD4C0DAFF4C
:101F2200DECFF6FFDDCFF7FF0800F550D96FDA6B91
:101F3200D751D927D851DA23DA510AE10A0ED95DED
:101F4200D8A0A6EF0FF0A9EF0FF0010EAAEF0FF045
:101F5200000EDB6FDC6BDB51DC11D8A4B3EF0FF0AA
:101F6200B5EF0FF081EF0FF0D3C0D9FFD4C0DAFF85
:101F7200DECFF6FFDDCFF7FF0800F550176E186AC7
:101F82004CEC1DF017500001E36FE351D8B4CCEFD5
:101F92000FF0CEEF0FF008EF10F0D3C0D9FFD4C08E
:101FA200DAFFDECFD7F0DDCFD8F0010ED727000E53
:101FB200D823D7C0F6FFD8C0F7FF0800F550176E38
:101FC200186A4CEC1DF017500001E46FE451D8B4CC
:101FD200EDEF0FF0EFEF0FF008EF10F0D3C0D9FFE5
:101FE200D4C0DAFFDECFD7F0DDCFD8F0020ED7278C
:101FF200000ED823D7C0F6FFD8C0F7FF0800F5506F
:10200200176E186A4CEC1DF017500001E56F660E52
:10201200E319D8A40FEF10F011EF10F051EF10F008
:10202200D3C0D9FFD4C0DAFFDECFF6FFDDCFF7FF92
:102032000800F5CFE6F0D3C0D9FFD4C0DAFFDE2A1C
:10204200000EDD22D5C0D9FFD6C0DAFFDFCFD7F030
:10205200040EDE26DFCFD8F0000EDD22D7C0D9FF76
:10206200D8C0DAFFDECFDFF0DECFE0F0DECFE1F086
:10207200DECFE2F0D1C08DF0D2C08EF0DFC08FF0A3
:10208200E0C090F0E1C091F0E2C092F0E6C093F0BF
:1020920011EC04F08DC0D1F08EC0D2F037EF11F008
:1020A200E30E116E000E126E1D0E136E080E146EEC
:1020B200000E166E020E156EFDEC19F01150121084
:1020C200D8A466EF10F068EF10F0E4EF10F0D3C080
:1020D200D9FFD4C0DAFFDECFD7F0DDCFD8F0010EC2
:1020E2000001D727000ED823D7C0F6FFD8C0F7FFCC
:1020F2000800F5CFE6F0BF0ED76FFF0ED86FD3C042
:10210200D9FFD4C0DAFFDECFF6FFDDCFF7FF08003C
:10211200F550D96FDA6BD751D927D851DA23DA5172
:102122000AE11A0ED95DD8A099EF10F09CEF10F0D9
:10213200010E9DEF10F0000EDD6FDE6BDD51DE1142
:10214200D8B4A6EF10F0A8EF10F0C2EF10F0D5C08F
:10215200D9FFD6C0DAFFDFCFD7F0040EDE26DFCFFD
:10216200D8F0000EDD22D7C0D9FFD8C0DAFFDECF0B
:10217200DFF0DECFE0F0DECFE1F0DECFE2F0DAEF4B
:1021820010F0D5C0D9FFD6C0DAFFDFCFD7F0040EEA
:10219200DE26DFCFD8F0000EDD22D7C0D9FFD8C0AF
:1021A200DAFFDECFDFF0DECFE0F0DECFE1F0DECF30
:1021B200E2F0020ED3C0D9FFD4C0DAFFDE26000E51
:1021C200DD223BEF10F0D3C0D9FFD4C0DAFFDECF5F
:1021D200F6FFDDCFF7FF0800F550250AD8A4F4EF8B
:1021E20010F0F6EF10F00EEF11F0D3C0D9FFD4C00B
:1021F200DAFFDE2A000EDD22000E126E250E116EAF
:10220200D1C013F0D2C014F068EC1AF0000E000135
:10221200D26F010ED16F37EF11F0D3C0D9FFD4C006
:10222200DAFFDE2A000EDD22000E0001D26F000E60
:10223200D16F37EF11F0D3C0D9FFD4C0DAFFDECFB0
:10224200F6FFDDCFF7FF0800F550116E126AD1C01C
:1022520013F0D2C014F068EC1AF0D3C0D9FFD4C086
:10226200DAFFDE2A000EDD2207EF11F012002850FD
:10227200800B316E28502824376E27AE43EF11F0C1
:1022820045EF11F046EF11F037803750D8B44CEFDC
:1022920011F04EEF11F061EF11F03728D8A454EF8E
:1022A20011F056EF11F05EEF11F0000E256E000EE8
:1022B200266E000E276E000E286E278E69EF11F033
:1022C200000E256E000E266E000E276E000E286E82
:1022D2002C50800B311A2C502C24326E2BAE74EF02
:1022E20011F076EF11F077EF11F032803250D8B45E
:1022F2007DEF11F07FEF11F092EF11F03228D8A4A8
:1023020085EF11F087EF11F08FEF11F0000E296EBB
:10231200000E2A6E000E2B6E000E2C6E2B8E9AEF84
:1023220011F0000E296E000E2A6E000E2B6E000EAA
:102332002C6E3250D8B4A0EF11F0A2EF11F0AAEF38
:1023420011F03750D8A4A8EF11F0AAEF11F0B4EFB2
:1023520011F0000E256E000E266E000E276E000E86
:10236200286E4CEF13F02B502502F3CF3CF0F4CF44
:102372003DF03C50336E346A356A366A3D50386EF1
:10238200396A3A6A3B6A2A502602F3CF3CF0F4CF0C
:102392003DF03C503326000E3422352236223D5089
:1023A2003826000E39223A223B2229502702F3CF47
:1023B2003CF0F4CF3DF03C503326000E342235225F
:1023C20036223D503826000E39223A223B2235C0B1
:1023D20036F034C035F033C034F0336A2950260267
:1023E200F3CF3CF0F4CF3DF03C5033263D50342245
:1023F200000E3522000E36222A502502F3CF3CF081
:10240200F4CF3DF03C5033263D503422000E3522AD
:10241200000E362235C036F034C035F033C034F009
:10242200336A29502502F3CF3CF0F4CF3DF03C5003
:1024320033263D503422000E3522000E36222B5018
:102442002602F3CF3CF0F4CF3DF03C5038263D500D
:102452003922000E3A22000E3B222A502702F3CFE5
:102462003CF0F4CF3DF03C5038263D503922000E6E
:102472003A22000E3B222B502702F3CF3CF0F4CF3E
:102482003DF03C502D6E3D502E6E2F6A306A2FC0AB
:1024920030F02EC02FF02DC02EF02D6A2D50382690
:1024A2002E5039222F503A2230503B2233C02DF089
:1024B20034C02EF035C02FF036C030F0190E67EF61
:1024C20012F0D89030322F322E322D32E82E62EFB7
:1024D20012F02D5038262E5039222F503A223050E9
:1024E2003B2235C036F034C035F033C034F0336AA5
:1024F200325037C02DF02E6A2D26000E2E22820E6B
:102502002D243C6EFF0E2E203D6E9DEF12F0D890D2
:10251200383639363A363B3636AE92EF12F094EF11
:1025220012F095EF12F03880D890333634363536C3
:1025320036363C06D8A03D063AAEA2EF12F0A4EF22
:1025420012F088EF12F0000E326E36AEABEF12F0E0
:10255200ADEF12F0D1EF12F0FF0E33142D6EFF0E1D
:1025620034142E6EFF0E35142F6E7F0E3614306E1D
:102572002D502E102F103010D8B4C2EF12F0C4EF2D
:1025820012F0C8EF12F0010E326ED1EF12F038A045
:10259200CDEF12F0CFEF12F0D1EF12F0C4EF12F044
:1025A2003250D8B4D7EF12F0D9EF12F0FDEF12F09B
:1025B200010E3826000E39223A223B223BA0E4EFDC
:1025C20012F0E6EF12F0FDEF12F038C02DF039C034
:1025D2002EF03AC02FF03BC030F0303430322F3280
:1025E2002E322D322DC038F02EC039F02FC03AF0E5
:1025F20030C03BF03C4A3D2A3DBE08EF13F03D504F
:1026020008E13C28D8A008EF13F00AEF13F014EF0A
:1026120013F0000E386E000E396E800E3A6E7F0E89
:102622003B6E42EF13F03DBE21EF13F03D5006E149
:102632003C04D8B01FEF13F021EF13F02DEF13F08D
:10264200000E386E000E396E000E3A6E000E3B6EB2
:10265200000E316E42EF13F03CC037F0FF0E381619
:10266200FF0E39167F0E3A16000E3B1637A03CEFCE
:1026720013F03EEF13F03FEF13F03A8ED89037305D
:102682003B6E31503B1238C025F039C026F03AC0BB
:1026920027F03BC028F0120000016351800B706FDD
:1026A20063516325776F62AF59EF13F05BEF13F05D
:1026B2005CEF13F077817751D8B462EF13F064EFD7
:1026C20013F079EF13F07729D8A46AEF13F06CEFC7
:1026D20013F074EF13F0000E606F000E616F000EC6
:1026E200626F000E636F628F000E636F81EF13F0F3
:1026F200000E606F000E616F000E626F000E636F5E
:102702006751800B701B67516725786F66AF8CEF3E
:1027120013F08EEF13F08FEF13F078817851D8B465
:1027220095EF13F097EF13F0ACEF13F07829D8A4DC
:102732009DEF13F09FEF13F0A7EF13F0000E646FFD
:10274200000E656F000E666F000E676F668F000EDB
:10275200676FB4EF13F0000E646F000E656F000E2A
:10276200666F000E676F6451651166116711D8A418
:10277200BDEF13F0BFEF13F0D7EF13F0000E606F51
:10278200000E616F000E626F000E636F800E6213A7
:102792007F0E63137051631360C060F061C061F01B
:1027A20062C062F063C063F01AEF15F07751D8A4EB
:1027B200DDEF13F0DFEF13F0E9EF13F0000E606FBF
:1027C200000E616F000E626F000E636F1AEF15F05C
:1027D200785177C068F0696B685F000E695B7F0EA5
:1027E2006825716F000E6921726F60C06CF061C064
:1027F2006DF062C06EF063C06FF0000E606F000E8D
:10280200616F000E626F000E636F000E736F000E39
:10281200746F000E756F000E766F000E786F4AEFC0
:1028220014F07851D8B418EF14F01AEF14F031EF15
:1028320014F0D8906C376D376E376F37D890603799
:1028420061376237633776AF29EF14F02BEF14F05C
:102852002CEF14F06081D890733774377537763760
:1028620064516C5D65516D5966516E5967516F596E
:10287200D8A03EEF14F040EF14F049EF14F0768D3B
:1028820064516C5F65516D5B66516E5B67516F5B46
:10289200782B190E786550EF14F052EF14F012EF06
:1028A20014F06C516D116E116F11D8B45BEF14F00E
:1028B2005DEF14F075EF14F0738175EF14F0D8909A
:1028C200603761376237633776AF6AEF14F06CEFC7
:1028D20014F06DEF14F06081D89073377437753748
:1028E20076377107D8A0720762AF7AEF14F07CEFE7
:1028F20014F060EF14F0000E786F76AF83EF14F0EF
:1029020085EF14F0A9EF14F0FF0E7315686FFF0E38
:102912007415696FFF0E75156A6F7F0E76156B6FF2
:10292200685169116A116B11D8B49AEF14F09CEFD7
:1029320014F0A0EF14F0010E786FA9EF14F060A16B
:10294200A5EF14F0A7EF14F0A9EF14F09CEF14F028
:102952007851D8B4AFEF14F0B1EF14F0D5EF14F012
:10296200010E6027000E61236223632363A1BCEF83
:1029720014F0BEEF14F0D5EF14F060C068F061C03F
:1029820069F062C06AF063C06BF06B356B336A3317
:102992006933683368C060F069C061F06AC062F090
:1029A2006BC063F0714B722B72BFE0EF14F0725187
:1029B20008E17129D8A0E0EF14F0E2EF14F0EDEF96
:1029C20014F0000E726F7169000E606F000E616F7D
:1029D200000E626F000E636F72BFFAEF14F0725155
:1029E20006E17105D8B0F8EF14F0FAEF14F008EF31
:1029F20015F0000E726F000E716F000E606F000E08
:102A0200616F000E626F000E636F000E706F71C017
:102A120077F077A10FEF15F011EF15F014EF15F025
:102A2200628F15EF15F0629FD8907731636FCBEF0D
:102A320013F0120040C089F041C08AF042C08BF00E
:102A420043C08CF079C089F07AC08AF07BC08BF0E9
:102A52007CC08CF0810E00017D6FFF0E7E6F89C0FD
:102A62007FF08AC080F08BC081F08CC082F0180E9B
:102A720040EF15F0D8908233813380337F33E82ED4
:102A82003BEF15F07F517D25876F000E7E21886F09
:102A920088BF55EF15F0885109E1170E875DD8A060
:102AA20055EF15F057EF15F061EF15F079C079F099
:102AB2007AC07AF07BC07BF07CC07CF025EF16F008
:102AC20088BF66EF15F068EF15F0D9EF15F087C0F3
:102AD2007DF0FF0E7E6FFF0E7F6F7F0E806F000E08
:102AE200816F7D6777EF15F07FEF15F081358133C8
:102AF20080337F337E337D2F72EF15F07EC083F0FB
:102B02007FC084F080C085F081C086F000018351CF
:102B120089157D6F84518A157E6F85518B157F6F64
:102B220086518C15806F7D517E117F118011D8A442
:102B32009DEF15F09FEF15F0A1EF15F057EF15F08F
:102B420089C07DF08AC07EF08BC07FF08CC080F09F
:102B5200200EB1EF15F0D89080337F337E337D3372
:102B6200E82EACEF15F07D517E117F118011D8B4A3
:102B7200BDEF15F0BFEF15F0C7EF15F083518927B0
:102B820084518A2385518B2386518C23831D7D6F2B
:102B9200841D7E6F851D7F6F861D806F7D51891715
:102BA2007E518A177F518B1780518C171DEF16F0BB
:102BB20089C07DF08AC07EF08BC07FF08CC080F02F
:102BC200200EE9EF15F0D89080337F337E337D33CA
:102BD200E82EE4EF15F07D517E117F118011D8A40B
:102BE200F5EF15F0F7EF15F001EF16F0000E896F13
:102BF200000E8A6F000E8B6F000E8C6F1DEF16F0A9
:102C0200D89089357D6F8A357E6F8B357F6F8C3595
:102C1200806F7D517E117F118011D8B413EF16F0B1
:102C220015EF16F01DEF16F0000E896F000E8A6F79
:102C3200800E8B6FBF0E8C6F89C079F08AC07AF0DC
:102C42008BC07BF08CC07CF01200196E1950D8B486
:102C52002DEF16F02FEF16F051EF16F014BE36EFEF
:102C620016F034EF16F051EF16F011C015F012C045
:102C720016F013C017F014C018F0151E161E171EFA
:102C8200181E152A000E16221722182215C01BF034
:102C920016C01CF017C01DF018C01EF059EF16F038
:102CA20011C01BF012C01CF013C01DF014C01EF0A6
:102CB2001150121013101410D8A462EF16F064EF22
:102CC20016F06EEF16F0000E116E000E126E000E70
:102CD200136E000E146EFFEF16F0960E1A6E78EF5A
:102CE20016F01A2AD8901E321D321C321B32000EE8
:102CF2001B14156E000E1C14166E000E1D14176E9A
:102D0200FE0E1E14186E1550161017101810D8A4A7
:102D12008DEF16F08FEF16F072EF16F09DEF16F0B2
:102D22001A2A010E1B26000E1C221D221E22D890DA
:102D32001E321D321C321B32000E1B14156E000E89
:102D42001C14166E000E1D14176EFF0E1E14186E44
:102D52001550161017101810D8A4B2EF16F0B4EFD1
:102D620016F091EF16F0BCEF16F01A06D8901B364B
:102D72001C361D361E361DBEC1EF16F0C3EF16F00F
:102D8200CBEF16F0020E1A60C9EF16F0CBEF16F079
:102D9200B6EF16F01AB0D0EF16F0D2EF16F0D3EF6E
:102DA20016F01D9ED8901A321AC015F0166A176ACC
:102DB200186A15C018F0176A166A156A15501B12A0
:102DC20016501C1217501D1218501E121950D8B44A
:102DD200EDEF16F0EFEF16F0F7EF16F014BEF6EF88
:102DE20016F0F4EF16F0F7EF16F01E8E1BC011F07E
:102DF2001CC012F01DC013F01EC014F01200000E11
:102E0200266E000E256E000E1F6E000E1E6E0CEF5B
:102E120017F0184A192A010E246E18C0F6FF19C0BD
:102E2200F7FF0800F550200AD8B41AEF17F01CEF8C
:102E320017F039EF17F0F70E1A6EFF0E1B6E18C05F
:102E4200F6FF19C0F7FF0800F5501C6E1D6A1A50F4
:102E52001C261B501D221D5009E1050E1C5CD8A02A
:102E620035EF17F037EF17F039EF17F0000E246E39
:102E720024C020F0216A20502110D8A443EF17F07B
:102E820045EF17F00AEF17F04FEF17F0000E1F6E25
:102E9200010E1E6E184A192A84EF17F018C0F6FFA9
:102EA20019C0F7FF0800F5501A6E1B6A1B50000A82
:102EB200D8B45EEF17F084EF17F01A502B0AD8B48B
:102EC2004BEF17F0060AD8B447EF17F084EF17F06C
:102ED20025C011F026C012F0000E146E0A0E136EF9
:102EE20058EC1FF018C0F6FF19C0F7FF0800F550A4
:102EF200115E000E125A300E1124256E000E1220A1
:102F0200266E4BEF17F0D00E1A6EFF0E1B6E18C016
:102F1200F6FF19C0F7FF0800F5501C6E1D6A1A5023
:102F22001C261B501D221D500AE10A0E1C5CD8A053
:102F32009DEF17F0A0EF17F0010EA1EF17F0000EB2
:102F4200226E236A22502310D8A4AAEF17F0ACEF06
:102F520017F069EF17F01E501F10D8A4B3EF17F047
:102F6200B5EF17F0C3EF17F025C01AF026C01BF01B
:102F72001A1E1B1E1A4A1B2A1AC018F01BC019F06F
:102F8200C7EF17F025C018F026C019F012000E0E78
:102F9200C16E000E946E9280010E79EC1FF0250E28
:102FA2001F6E800E1E6E25EC1EF06BEC1FF0000EE5
:102FB200116E010E8FEC1CF0000E0001FB6F000E73
:102FC200FC6F000EFD6F000EFE6F0B0E0001F06F26
:102FD200260EEF6F5D0EE82EFED7EF2FFCD7F02FF7
:102FE200FAD700D0000E296E000E2A6E700E2B6EDC
:102FF200420E2C6EFBC025F0FCC026F0FDC027F06F
:10300200FEC028F038EC11F025C060F026C061F057
:1030120027C062F028C063F0000E0001646F000E4A
:10302200656FC80E666F420E676F4DEC13F060C09D
:10303200F1F061C0F2F062C0F3F063C0F4F0000E90
:10304200296E000E2A6EC80E2B6E420E2C6E000EDA
:10305200FDEC1DF01FC025F020C026F021C027F096
:1030620022C028F038EC11F025C060F026C061F0D3
:1030720027C062F028C063F0000E0001646FC00E2A
:10308200656F7F0E666F440E676F4DEC13F060C084
:1030920048F061C049F062C04AF063C04BF048C0DA
:1030A20081F049C082F04AC083F04BC084F0E0EC6A
:1030B2001CF0500E01015F6F010E606F010E616F17
:1030C200080E626FF1C063F1F2C064F1F3C065F102
:1030D200F4C066F1AAEC1DF0500E126E010E136ED2
:1030E20040EC1FF0DDEF17F007EF00F000017B3539
:1030F2007C353F6E3F50D8A481EF18F083EF18F073
:103102008DEF18F0000E796F000E7A6F000E7B6F54
:10311200000E7C6FFAEF18F079C07DF07AC07EF075
:103122007BC07FF07CC080F0200E9DEF18F0D8901D
:1031320080337F337E337D33E82E98EF18F07D5154
:103142003E6E7B8FFF0E7917FF0E7A17FF0E7B17ED
:10315200000E7C17960E3F5E3FBEB4EF18F0B2EF42
:1031620018F0CAEF18F03F50800A970FD8B0BCEFA2
:1031720018F0BEEF18F0C0EF18F083EF18F0D890F7
:103182007C337B337A3379333F3EC0EF18F0E2EF82
:1031920018F01F0E3F64D0EF18F0D2EF18F0DAEFFC
:1031A20018F083EF18F0D89079377A377B377C376D
:1031B2003F063F50D8A4E0EF18F0E2EF18F0D4EF4A
:1031C20018F03E50D8B4E8EF18F0EAEF18F0F2EF3A
:1031D20018F07C1F7B1F7A1F796D000E7A237B23E8
:1031E2007C2379C079F07AC07AF07BC07BF07CC016
:1031F2007CF01200000E00016015686F000E611570
:10320200696F800E62156A6F7F0E63156B6F68516E
:1032120069116A116B11D8A411EF19F013EF19F0AB
:103222001BEF19F0000E606F000E616F000E626FEF
:10323200000E636F000E6415686F000E6515696FEE
:10324200800E66156A6F7F0E67156B6F6851691184
:103252006A116B11D8A430EF19F032EF19F03AEF7E
:1032620019F0000E646F000E656F000E666F000E9F
:10327200676F63AF3FEF19F041EF19F04AEF19F0B2
:10328200606D611FD8B0612B621FD8B0622B800EB7
:10329200635767AF4FEF19F051EF19F05AEF19F07A
:1032A200646D651FD8B0652B661FD8B0662B800E83
:1032B2006757000E601B000E611B000E621B800E22
:1032C200631B000E641B000E651B000E661B800E46
:1032D200671B6451605D655161596651625967515E
:1032E2006359D8B077EF19F079EF19F07CEF19F044
:1032F200D8907DEF19F0D880120044C01BF045C071
:103302001CF046C01DF047C01EF011C01BF012C0D9
:103312001CF013C01DF014C01EF01BC015F01CC021
:1033220016F01DC017F01EC018F0180E9EEF19F00F
:10333200D8901832173216321532E82E99EF19F05A
:103342001550196E1A6A19501A10D8A4ABEF19F059
:10335200ADEF19F0CDEF19F0D8901B34156E1C3477
:10336200166E1D34176E1E34186E15501610171077
:103372001810D8A4BFEF19F0C1EF19F0C7EF19F078
:10338200000E126E020E116EFCEF19F0000E126E9C
:10339200030E116EFCEF19F019281A10D8A4D4EFFD
:1033A20019F0D6EF19F0F8EF19F01BC015F01CC098
:1033B20016F01DC017F01EC018F0090ED890153671
:1033C200163617361836E82EDFEF19F0155016109C
:1033D20017101810D8B4F0EF19F0F3EF19F0010E2E
:1033E200F4EF19F0000E116E126AFCEF19F0000EE4
:1033F200126E040E116E120011C018F012C019F0F4
:1034020013C01AF014C01BF01506D8A01606152812
:1034120006E11628D8A410EF1AF012EF1AF01FEFE7
:103422001AF0000E126E000E116E67EF1AF0184AB3
:10343200192A1A4A1B2A1506D8A0160618C0D9FF3F
:1034420019C0DAFFDF50D8B429EF1AF02BEF1AF0C7
:1034520056EF1AF01AC0F6FF1BC0F7FF0800F5502E
:103462000009D8B437EF1AF039EF1AF056EF1AF014
:1034720015501610D8B440EF1AF042EF1AF056EF7A
:103482001AF018C0D9FF19C0DAFFDF50176E1AC040
:10349200F6FF1BC0F7FF0800F5501718D8B454EF19
:1034A2001AF056EF1AF018EF1AF018C0D9FF19C027
:1034B200DAFFDF50176E1AC0F6FF1BC0F7FF0800D5
:1034C200F550175C116E126AD8A012061200135042
:1034D2001410D8B46FEF1AF071EF1AF07AEF1AF0F5
:1034E20013501410D8A478EF1AF07AEF1AF07FEF85
:1034F2001AF011508FEC1FF0CCEF1AF020EE04F00E
:103502001350D9261450DA22DE50DE10D8B48CEFD4
:103512001AF08EEF1AF0A9EF1AF020EE04F0135011
:10352200D9261450DA2210EE02F01350E12614507C
:10353200E222DE50E65CE650800A196EDE50800A16
:103542001958D8B0A7EF1AF0A9EF1AF0CCEF1AF079
:1035520020EE02F01350D9261450DA22DECF15F0F5
:10356200DDCF16F013C0D9FF14C0DAFFDECF17F09B
:10357200DDCF18F015501724D96E16501820DA6EC8
:1035820011C0DFFF20EE02F01350D9261450DA22C8
:10359200DE2A000EDD221200000E166E14BED6EFD9
:1035A2001AF0D4EF1AF0DCEF1AF0136C141ED8B034
:1035B200142A010E166E12BEE3EF1AF0E1EF1AF0B2
:1035C200E9EF1AF0116C121ED8B0122A010E161A67
:1035D200000E186E000E176E13501410D8B4F4EFCC
:1035E2001AF0F6EF1AF01EEF1BF0010E156EFEEF49
:1035F2001AF0D89013361436152A14AE03EF1BF0C6
:1036020005EF1BF0FAEF1AF0D89017361836135060
:10361200115C14501258D8A011EF1BF013EF1BF0DD
:1036220018EF1BF01350115E1450125A1780D890E5
:1036320014321332152E05EF1BF01650D8B424EFB6
:103642001BF026EF1BF02AEF1BF0176C181ED8B0E8
:10365200182A17C011F018C012F012004CA034EF53
:103662001BF036EF1BF040EF1BF023C01AF024C012
:103672001BF021C01CF022C01DF096EC1EF026BEED
:1036820045EF1BF047EF1BF04DEF1BF025C02AF072
:1036920026C02BF051EF1BF0000E2B6E000E2A6E8F
:1036A200000E296E000E286E63EF1BF0000E126EE4
:1036B200200E116E21C013F022C014F068EC1AF033
:1036C200284A292A2A50285C2950800A276E2B5022
:1036D200800A2758D8A070EF1BF072EF1BF057EF4B
:1036E2001BF04CB077EF1BF079EF1BF083EF1BF070
:1036F20023C01AF024C01BF021C01CF022C01DF010
:1037020096EC1EF023C011F024C012F00CEC1FF056
:103712002A501124216E2B501220226E1200000E0C
:10372200166E12BE99EF1BF097EF1BF09FEF1BF086
:10373200116C121ED8B0122A010E166E14BEA6EF1C
:103742001BF0A4EF1BF0AAEF1BF0136C141ED8B0F1
:10375200142A13501410D8B4B1EF1BF0B3EF1BF0BE
:10376200D7EF1BF0010E156EBBEF1BF0D89013368E
:103772001436152A14AEC0EF1BF0C2EF1BF0B7EFE0
:103782001BF01350115C14501258D8A0CBEF1BF051
:10379200CDEF1BF0D1EF1BF01350115E1450125AF3
:1037A200D89014321332152EC2EF1BF01650D8B433
:1037B200DDEF1BF0DFEF1BF0E3EF1BF0116C121ECD
:1037C200D8B0122A11C011F012C012F01200000E6D
:1037D2001114196E000E12141A6E800E13141B6E41
:1037E2007F0E14141C6E19501A101B101C10D8A432
:1037F200FDEF1BF0FFEF1BF007EF1CF0000E116E48
:10380200000E126E000E136E000E146E000E1514D2
:10381200196E000E16141A6E800E17141B6E7F0E90
:1038220018141C6E19501A101B101C10D8A41CEF6F
:103832001CF01EEF1CF026EF1CF0000E156E000EA1
:10384200166E000E176E000E186E155011180FE14D
:10385200165012180CE11750131809E118501418D9
:10386200D8B436EF1CF038EF1CF03BEF1CF0D890C8
:103872003CEF1CF0D8801200000E196E000E1A6E7A
:10388200000E1B6E000E1C6E15501610171018102D
:10389200D8B44EEF1CF050EF1CF086EF1CF0010E76
:1038A2001D6E5AEF1CF0D89015361636173618369C
:1038B2001D2A18AE5FEF1CF061EF1CF054EF1CF0F4
:1038C200D89019361A361B361C361550115C165014
:1038D20012581750135818501458D8A073EF1CF0F0
:1038E20075EF1CF07EEF1CF01550115E1650125A47
:1038F2001750135A1850145A1980D8901832173288
:10390200163215321D2E61EF1CF019C011F01AC0CB
:1039120012F01BC013F01CC014F01200126EF90E4C
:10392200CB6E1204D8A498EF1CF09AEF1CF0ACEF07
:103932001CF01104D8A4A0EF1CF0A2EF1CF0ACEF15
:103942001CF00C0EBD6E000EBE6E0C0EBA6E000E9A
:10395200BB6ED6EF1CF01204D8A4B2EF1CF0B4EF89
:103962001CF0C2EF1CF01150D8A4BAEF1CF0BCEF4F
:103972001CF0C2EF1CF00C0EBD6E000EBE6ED6EF38
:103982001CF01250D8A4C8EF1CF0CAEF1CF0D6EFFE
:103992001CF01104D8A4D0EF1CF0D2EF1CF0D6EF2B
:1039A2001CF00C0EBA6E000EBB6E000ECA6ECA5030
:1039B200FC0B0109CA6E000ECC6ECA841200000E06
:1039C2000001646F000E656FC80E666F420E676F6E
:1039D20081C060F082C061F083C062F084C063F095
:1039E2004DEC13F060C029F061C02AF062C02BF0E8
:1039F20063C02CF0CB50116E126A136A146A010E66
:103A020026EC16F011C025F012C026F013C027F0E4
:103A120014C028F038EC11F025C079F026C07AF0F5
:103A220027C07BF028C07CF077EC18F000017951B8
:103A3200BE6E1200E9C0EDF0EAC0EEF0000E000129
:103A4200F66F000EF56F39EF1DF0E7C0D1F0E8C058
:103A5200D2F0ED0ED36F000ED46FEBC0D5F0ECC0F8
:103A6200D6F001EC0FF00001D151F527D251F62327
:103A7200EDC0F6FFEEC0F7FF0800F5500009D8A42C
:103A820045EF1DF047EF1DF026EF1DF0F5C0E7F002
:103A9200F6C0E8F01200BF0E196EFF0E1A6E17C0C4
:103AA2001BF018C01CF019501B261A501C221C5067
:103AB2000AE11A0E1B5CD8A061EF1DF064EF1DF045
:103AC200010E65EF1DF0000E1D6E1E6A1D501E10C8
:103AD200D8B46EEF1DF070EF1DF077EF1DF0200EE1
:103AE2001710176E1850186E7BEF1DF017C017F0E5
:103AF20018C018F0120013C017F014C018F011C04B
:103B020019F012C01AF01750156E1850166E174A97
:103B1200182A15C0F6FF16C0F7FFF86A19C0D9FFB8
:103B22001AC0DAFF194A1A2A070EF76403D00800EE
:103B3200F55005D0F6CFE1FFF7CFE2FFE750DF6E99
:103B4200DF50D8A4A7EF1DF0A9EF1DF084EF1DF000
:103B52001200630E0101676F010E686F5FC169F1A8
:103B620060C16AF1000E6C6F000E6B6F000E6E6F1B
:103B7200000E6D6F690E0001E76F010EE86F61C103
:103B8200E9F062C1EAF0670EEB6F010EEC6F1BEC1D
:103B92001DF001016B515F25D96E6C516021DA6E07
:103BA200000EDF6E1200010E176E200E1118121099
:103BB200D8B4DEEF1DF0E0EF1DF0F9EF1DF0F70EC7
:103BC200136EFF0E146E11C015F012C016F01350D2
:103BD200152614501622165009E1050E155CD8A0C0
:103BE200F5EF1DF0F7EF1DF0F9EF1DF0000E176E67
:103BF20017C011F0126A1200246E000EC26E24C0A9
:103C020023F023462346C2502318C30B2318C26E47
:103C1200C280C282C2B210EF1EF012EF1EF00BEF92
:103C22001EF0C290C3CF11F0C4CF12F0136A146A0F
:103C3200000E26EC16F011C01FF012C020F013C0C7
:103C420021F014C022F01200000E116E120E126E3C
:103C52007A0E136E000E146E1EC015F01FC016F001
:103C6200176A186A3DEC1CF0070E3DEF1EF0D89063
:103C72001432133212321132E82E38EF1EF01104D0
:103C8200AF6EAC94AC98AB8EAC9CAC8AAB9CAB8860
:103C9200F28EF28C9D8A12000600F2A253EF1EF001
:103CA20055EF1EF070EF1EF0FBC001F0FCC002F0F9
:103CB200FDC003F0FEC004F0000E056E000E066E9D
:103CC200800E076E3F0E086EA1EC0CF001C0FBF0F7
:103CD20002C0FCF003C0FDF004C0FEF0F2924E926E
:103CE2001100000E0001641B000E651B000E661B16
:103CF200800E671B60C011F061C012F062C013F049
:103D020063C014F064C015F065C016F066C017F009
:103D120067C018F041EC0AF011C060F012C061F007
:103D220013C062F014C063F01200000E206E000E89
:103D32001F6EA7EF1EF01EC011F0126A1CC013F016
:103D42001DC014F068EC1AF01F4A202A1F501A24D2
:103D5200D96E20501B20DA6EDF501E6E1E50D8A482
:103D6200B5EF1EF0B7EF1EF09CEF1EF01200BF0E73
:103D7200136EFF0E146E11C015F012C016F0135020
:103D820015261450162216500AE11A0E155CD8A0F8
:103D9200CDEF1EF0D0EF1EF0010ED1EF1EF0000E9F
:103DA200116E126A12001150121013101410D8B4AE
:103DB200DDEF1EF0DFEF1EF0E7EF1EF0000E111A2E
:103DC200000E121A000E131A800E141A11C011F0EE
:103DD20012C012F013C013F014C014F01200D00E6F
:103DE200136EFF0E146E11C015F012C016F01350B0
:103DF20015261450162216500AE10A0E155CD8A098
:103E020005EF1FF008EF1FF0010E09EF1FF0000E83
:103E1200116E126A120011C013F012C014F014EFE6
:103E22001FF0114A122A11C0D9FF12C0DAFFDF5067
:103E3200D8A41EEF1FF020EF1FF012EF1FF0135057
:103E4200115C116E14501258126E120001EE00F045
:103E52005F0EEE6AE806FDE100EEF1F00E0EEE6A8C
:103E6200E806FDE100EE40F00E0EEE6AE806FDE126
:103E72004E904E92000EF86E0001C8EF17F04BEF15
:103E82001FF012C0D9FF13C0DAFFDF5084EC1FF01D
:103E9200124A132A12C0D9FF13C0DAFFDF50D8A486
:103EA20055EF1FF057EF1FF042EF1FF012001150B5
:103EB2001302F3CF15F0F4CF16F011501402F350A1
:103EC200162612501302F350162615C011F016C012
:103ED20012F01200CF0EC116000EC26EC050C70BF8
:103EE2001809C06EC050F80B0509C06EC08E1200D2
:103EF200116E938011B002D0F19C01D0F18CF2923C
:103F0200F288F28E1200116EACA28AEF1FF08CEFD3
:0E3F12001FF085EF1FF011C0ADFF120012006E
:020000040020DA
:08000000FFFFFFFFFFFFFFFF00
:020000040030CA
:0E000000000C191EFF8385FF0FC00FE00F409C
:00000001FF
