:04000000CCEF3EF013
:107D74003F065B4F666D7D077F6F0F0EC16E000E71
:107D8400936E000E956E630E99EC3FF0C5EF3EF0D6
:107D940000EF00F0740EF66E7D0EF76E000EF86EB6
:107DA40000EE13F010EE0AF00900F5CFEEFFE550F7
:107DB400E150FAE10001BFEF3EF0000E066E02BE94
:107DC400E8EF3EF0E6EF3EF0EEEF3EF0016C021E0F
:107DD400D8B0022A010E066E04BEF5EF3EF0F3EFB2
:107DE4003EF0F9EF3EF0036C041ED8B0042A0350B1
:107DF4000410D8B400EF3FF002EF3FF026EF3FF05D
:107E0400010E056E0AEF3FF0D89003360436052ABA
:107E140004AE0FEF3FF011EF3FF006EF3FF00350D9
:107E2400015C04500258D8A01AEF3FF01CEF3FF059
:107E340020EF3FF00350015E0450025AD890043200
:107E44000332052E11EF3FF00650D8B42CEF3FF06B
:107E54002EEF3FF032EF3FF0016C021ED8B0022A41
:107E640001C001F002C002F01200000E066E04BE52
:107E740040EF3FF03EEF3FF046EF3FF0036C041E4F
:107E8400D8B0042A010E066E02BE4DEF3FF04BEF50
:107E94003FF053EF3FF0016C021ED8B0022A010EEE
:107EA400061A000E086E000E076E03500410D8B4B4
:107EB4005EEF3FF060EF3FF088EF3FF0010E056E9C
:107EC40068EF3FF0D89003360436052A04AE6DEF10
:107ED4003FF06FEF3FF064EF3FF0D890073608367D
:107EE4000350015C04500258D8A07BEF3FF07DEFB3
:107EF4003FF082EF3FF00350015E0450025A0780C6
:107F0400D89004320332052E6FEF3FF00650D8B4F8
:107F14008EEF3FF090EF3FF094EF3FF0076C081EB8
:107F2400D8B0082A07C001F008C002F012000E6E93
:107F34000EC001F0026A000E046E0A0E036E37ECE6
:107F44003FF001500C6E0EC001F0026A000E046E88
:107F54000A0E036EDFEC3EF001500D6E000E106E43
:107F6400000E0F6EEDEF3FF0130E0F24D96E000ECE
:107F74001020DA6EDF508A6E000E126E000E116E43
:107F8400D9EF3FF0130E1124D96E000E1220DA6ED1
:107F9400DF508C6E060E0A6E130E096EAE0EE82EBE
:107FA400FED7092EFCD70A2EFAD7114A122A0D50F1
:107FB400096E0A6A1150095C0A50800A0B6E12504D
:107FC400800A0B58D8B0E9EF3FF0EBEF3FF0C4EF75
:107FD4003FF00F4A102A0C50096E0A6A0F50095CD0
:107FE4000A50800A0B6E1050800A0B58D8B0FDEF6F
:0C7FF4003FF0FFEF3FF0B6EF3FF012004F
:020000040020DA
:08000000FFFFFFFFFFFFFFFF00
:020000040030CA
:0E0000000000191EFF8385FF0FC00FE00F40A8
:00000001FF
