:040000001DEF1EF0E2
:1008000000736574706F696E743A20252E3266200D
:10081000200074656D703A20252E32660D00494E19
:1008200046004E414E00696E66006E616E006C6659
:100830000000000E0001826F000E816F62C093F015
:1008400063C094F064C095F065C096F096BF2DEF3C
:1008500004F02BEF04F043EF04F0000E826F010E62
:10086000816F93C001F094C002F095C003F096C070
:1008700004F05AEC1EF001C093F002C094F003C0E3
:1008800095F004C096F0000E00019A6F000E996F6B
:10089000F9C085F0FAC086F081518211D8A453EFD7
:1008A00004F055EF04F05CEF04F0FDA55AEF04F0FE
:1008B0005CEF04F076EF04F081518211D8A463EF6D
:1008C00004F065EF04F06BEF04F0000E686F2B0E80
:1008D000676F6FEF04F0000E686F2D0E676F67C0D3
:1008E00010F1994B9A2B8507D8A0860793C001F089
:1008F00094C002F095C003F096C004F0CAEC18F062
:1009000001040210D8A487EF04F089EF04F0E0EFAF
:1009100004F0BF0E5B6EFF0E5C6E000166515D6EF3
:100920005E6A5B505D265C505E225E500AE11A0EE4
:100930005D5CD8A09EEF04F0A1EF04F0010EA2EFE1
:1009400004F0000E696F6A6B69516A11D8B4ABEF9D
:1009500004F0ADEF04F0BBEF04F0100E9925016E2A
:10096000010E9A21026E1E0E036E080E046E08EC34
:100970001DF0C7EF04F0100E9925016E010E9A21AB
:10098000026E260E036E080E046E08EC1DF00001C8
:10099000FD0E8527FF0E862360C011F061C012F0A6
:1009A000100E136E010E146E85C015F086C016F081
:1009B00019EC1AF011C060F012C061F044EF0AF0B7
:1009C00093C001F094C002F095C003F096C004F00B
:1009D000CAEC18F001500210D8A4F1EF04F0F3EFC4
:1009E00004F033EF05F0BF0E5B6EFF0E5C6E00018E
:1009F00066515D6E5E6A5B505D265C505E225E50A5
:100A00000AE11A0E5D5CD8A008EF05F00BEF05F0C7
:100A1000010E0CEF05F0000E6B6F6C6B6B516C11DF
:100A2000D8B415EF05F017EF05F025EF05F0100E1F
:100A30009925016E010E9A21026E220E036E080E98
:100A4000046E08EC1DF0C7EF04F0100E9925016E3E
:100A5000010E9A21026E2A0E036E080E046E08EC37
:100A60001DF0C7EF04F0000E00019B6F000E9C6F9D
:100A7000800E9D6F3F0E9E6F000E986F000E976F59
:100A800093C001F094C002F095C003F096C004F04A
:100A9000000E056E000E066E000E076E000E086E4C
:100AA00036EC1BF0D8B057EF05F059EF05F0DCEF4E
:100AB00005F078EF05F09BC015F09CC016F09DC0C6
:100AC00017F09EC018F0000E196E000E1A6E200E60
:100AD0001B6E410E1C6EDCEC0EF015C09BF016C0B8
:100AE0009CF017C09DF018C09EF00001974B982B0A
:100AF00093C02EF094C02FF095C030F096C031F026
:100B0000000E196E000E1A6E200E1B6E410E1C6E2A
:100B10009BC015F09CC016F09DC017F09EC018F049
:100B2000DCEC0EF015C032F016C033F017C034F014
:100B300018C035F048EC18F0D8B0A1EF05F0A3EFDD
:100B400005F05BEF05F0C3EF05F09BC02EF09CC0F5
:100B50002FF09DC030F09EC031F0000E326E000EBE
:100B6000336E200E346E410E356EF1EC10F02EC057
:100B70009BF02FC09CF030C09DF031C09EF0000172
:100B80009707D8A0980793C02EF094C02FF095C077
:100B900030F096C031F09BC032F09CC033F09DC065
:100BA00034F09EC035F048EC18F0D8A0DAEF05F02C
:100BB000DCEF05F0A5EF05F066C007F0086AD8EC99
:100BC0001CF007500001886F88C087F0670E8819F5
:100BD000D8A4EDEF05F0EFEF05F015EF06F0FB51AF
:100BE000FC11D8A4F6EF05F0F8EF05F0FCEF05F0E6
:100BF000000EFC6F010EFB6FFCBF09EF06F0FC510D
:100C000006E1FB05D8B007EF06F009EF06F00FEF9D
:100C100006F0000E846F060E836F1EEF06F0FBC019
:100C200083F0FCC084F01EEF06F0FCBF1AEF06F064
:100C30001CEF06F009EF06F00FEF06F0670E8819BB
:100C4000D8A425EF06F027EF06F056EF06F098AF90
:100C500035EF06F0FC0E975DFF0E9859D8A033EFE4
:100C600006F035EF06F054EF06F0FF0E5B6EFF0E58
:100C70005C6E83C05DF084C05EF05B505D265C50AE
:100C80005E2297515D5C5E50800A5F6E9851800ACB
:100C90005F58D8A04EEF06F050EF06F054EF06F084
:100CA000660E876F56EF06F0650E876F83C079F08A
:100CB00084C07AF0670E8819D8A461EF06F063EF5C
:100CC00006F073EF06F0660E8719D8A46AEF06F0F7
:100CD0006CEF06F075EF06F098BF73EF06F071EF5A
:100CE00006F075EF06F0794B7A2B660E8719D8A4BB
:100CF0007CEF06F07EEF06F09EEF06F098BF85EFE2
:100D000006F083EF06F091EF06F0000E9B6F000EE9
:100D10009C6F800E9D6F3F0E9E6F000E986F000EB1
:100D2000976F670E8819D8B498EF06F09AEF06F01F
:100D30009EEF06F09751792798517A23000E926F13
:100D4000000E916F93C089F094C08AF095C08BF02B
:100D500096C08CF09BC07BF09CC07CF09DC07DF069
:100D60009EC07EF02FEF07F089C02EF08AC02FF0D2
:100D70008BC030F08CC031F09BC032F09CC033F09F
:100D80009DC034F09EC035F0F1EC10F02EC047F05D
:100D90002FC048F030C049F031C04AF05DEC14F08B
:100DA00047C08DF048C08EF049C08FF04AC090F027
:100DB0008DC047F08EC048F08FC049F090C04AF017
:100DC000C5EC17F047C07FF048C080F089C03EF006
:100DD0008AC03FF08BC040F08CC041F09BC019F03E
:100DE0009CC01AF09DC01BF09EC01CF08DC015F079
:100DF0008EC016F08FC017F090C018F0DCEC0EF02B
:100E000015C042F016C043F017C044F018C045F0BA
:100E1000D8EC1DF03EC089F03FC08AF040C08BF096
:100E200041C08CF09BC02EF09CC02FF09DC030F0D4
:100E30009EC031F0000E326E000E336E200E346E06
:100E4000410E356EF1EC10F02EC09BF02FC09CF0DF
:100E500030C09DF031C09EF00001914B922B795132
:100E6000915D9251800A5B6E7A51800A5B58D8A0DE
:100E70003CEF07F03EEF07F0B4EF06F09BC015F033
:100E80009CC016F09DC017F09EC018F0000E196EA1
:100E9000000E1A6EA00E1B6E400E1C6EDCEC0EF0E7
:100EA00015C08DF016C08EF017C08FF018C090F0EE
:100EB00089C02EF08AC02FF08BC030F08CC031F08A
:100EC0008DC032F08EC033F08FC034F090C035F05A
:100ED00048EC18F0D8B06FEF07F071EF07F07CEF37
:100EE00007F0000E00018D6F000E8E6F000E8F6FE9
:100EF000000E906FA5EF07F089C001F08AC002F0E4
:100F00008BC003F08CC004F08DC005F08EC006F0DD
:100F10008FC007F090C008F036EC1BF0D8A093EF1C
:100F200007F095EF07F0A5EF07F000017FB19BEF09
:100F300007F09DEF07F0A5EF07F0000E8D6F000E94
:100F40008E6F000E8F6F000E906F93C02EF094C0C6
:100F50002FF095C030F096C031F08DC032F08EC0C9
:100F600033F08FC034F090C035F045EC0AF02EC05D
:100F700089F02FC08AF030C08BF031C08CF089C06E
:100F80002EF08AC02FF08BC030F08CC031F0000EF4
:100F9000196E000E1A6E200E1B6E410E1C6E7BC069
:100FA00015F07CC016F07DC017F07EC018F0DCECA8
:100FB0000EF015C032F016C033F017C034F018C070
:100FC00035F048EC18F0D8A0E8EF07F0EAEF07F0AA
:100FD00013EF08F00001974B982B7BC015F07CC0F5
:100FE00016F07DC017F07EC018F0000E196E000ECE
:100FF0001A6E200E1B6E410E1C6EDCEC0EF015C03E
:101000007BF016C07CF017C07DF018C07EF0660E35
:1010100000018719D8A40FEF08F011EF08F013EFC3
:1010200008F0794B7A2B7BC09BF07CC09CF07DC094
:101030009DF07EC09EF0650E00018719D8B423EFA5
:1010400008F025EF08F02BEF08F097C077F098C074
:1010500078F02FEF08F0000E786F000E776F000E1B
:10106000766F000E756F000E746F000E736F000EBA
:10107000926F000E916F2AEF09F089C02EF08AC09E
:101080002FF08BC030F08CC031F09BC032F09CC090
:1010900033F09DC034F09EC035F0F1EC10F02EC05E
:1010A00047F02FC048F030C049F031C04AF05DEC45
:1010B00014F047C08DF048C08EF049C08FF04AC090
:1010C00090F08DC047F08EC048F08FC049F090C0BE
:1010D0004AF0C5EC17F047C07FF048C080F000012F
:1010E000FDB975EF08F077EF08F094EF08F07F5145
:1010F0008011D8A47EEF08F080EF08F094EF08F09C
:10110000670E8819D8A487EF08F089EF08F094EFEC
:1011100008F078BF90EF08F08EEF08F094EF08F039
:10112000734B742BDEEF08F075517611D8A49BEF4A
:1011300008F09DEF08F0C7EF08F078BFA4EF08F0C3
:10114000A2EF08F0C7EF08F0100E9925D96E010E36
:101150009A21DA6E2E0EDF6E994B9A2B8507D8A056
:101160008607000E766F010E756FC7EF08F0100E40
:101170009925D96E010E9A21DA6E300EDF6E994BE9
:101180009A2B8507D8A086077307D8A074077351D8
:101190007411D8A4CEEF08F0D0EF08F0B7EF08F044
:1011A000100E9925D96E010E9A21DA6E7F51300FFB
:1011B000DF6E994B9A2B8507D8A0860789C03EF031
:1011C0008AC03FF08BC040F08CC041F09BC019F04A
:1011D0009CC01AF09DC01BF09EC01CF08DC015F085
:1011E0008EC016F08FC017F090C018F0DCEC0EF037
:1011F00015C042F016C043F017C044F018C045F0C7
:10120000D8EC1DF03EC089F03FC08AF040C08BF0A2
:1012100041C08CF09BC02EF09CC02FF09DC030F0E0
:101220009EC031F0000E326E000E336E200E346E12
:10123000410E356EF1EC10F02EC09BF02FC09CF0EB
:1012400030C09DF031C09EF000017707D8A078072C
:10125000914B922B7951915D9251800A5B6E7A513C
:10126000800A5B58D8B037EF09F039EF09F047EF43
:1012700009F09ABF45EF09F09A5109E14B0E995DCB
:10128000D8A045EF09F047EF09F03DEF08F07551A0
:101290007611D8A44EEF09F050EF09F061EF09F094
:1012A000FDA955EF09F057EF09F061EF09F0100EB5
:1012B0009925D96E010E9A21DA6E2E0EDF6E994BAA
:1012C0009A2B100E9925D96E010E9A21DA6E000E16
:1012D000DF6E650E8719D8A470EF09F072EF09F080
:1012E000CCEF04F0000E926F4F0E916F100E91250F
:1012F000D96E010E9221DA6E000EDF6E000E826F43
:10130000000E816F98BF89EF09F087EF09F091EF28
:1013100009F0000E826F010E816F976D981FD8B093
:10132000982B000E846F020E836FC2EF09F09107B5
:10133000D8A09207100E9125D96E010E9221DA6E77
:1013400097C001F098C002F0000E046E0A0E036E02
:10135000DEEC1AF00150300FDF6E97C001F098C03C
:1013600002F0000E046E0A0E036E7CEC1AF001C04F
:1013700097F002C098F000018307D8A08407850782
:10138000D8A0860797519811D8A4C9EF09F0CBEFE0
:1013900009F097EF09F084BFD8EF09F0845106E116
:1013A0008305D8B0D6EF09F0D8EF09F097EF09F030
:1013B0009107D8A0920781518211D8A4E2EF09F0D9
:1013C000E4EF09F0EAEF09F0000E6E6F2B0E6D6F7F
:1013D000EEEF09F0000E6E6F2D0E6D6F100E912561
:1013E000D96E010E9221DA6E6DC0DFFF8507D8A09D
:1013F00086079107D8A09207BF0E5B6EFF0E5C6E4A
:1014000066515D6E5E6A5B505D265C505E225E508A
:101410000AE11A0E5D5CD8A010EF0AF013EF0AF093
:10142000010E14EF0AF0000E716F726B71517211A0
:10143000D8A41DEF0AF01FEF0AF025EF0AF0000E06
:10144000706F650E6F6F29EF0AF0000E706F450E1A
:101450006F6F100E9125D96E010E9221DA6E6FC05A
:10146000DFFF8507D8A08607100E9925016E010EB3
:101470009A21026E100E9125036E010E9221046EC8
:1014800008EC1DF0CCEF04F012003150800B3A6EE6
:10149000315031243C6E30AE50EF0AF052EF0AF07A
:1014A00053EF0AF03C803C50D8B459EF0AF05BEFA0
:1014B0000AF070EF0AF03C28D8A461EF0AF063EF5D
:1014C0000AF06BEF0AF0000E2E6E000E2F6E000E6B
:1014D000306E000E316E308E000E316E78EF0AF0F5
:1014E000000E2E6E000E2F6E000E306E000E316E4E
:1014F0003550800B3B6E3A503B18D8B482EF0AF05F
:1015000084EF0AF085EF0AF03A8C355035243B6EB3
:1015100034AE8DEF0AF08FEF0AF090EF0AF03B80C7
:101520003B50D8B496EF0AF098EF0AF0ADEF0AF00E
:101530003B28D8A49EEF0AF0A0EF0AF0A8EF0AF02B
:10154000000E326E000E336E000E346E000E356EDD
:10155000348E000E356EB5EF0AF0000E326E000EBE
:10156000336E000E346E000E356E3C503B5CD8B0CE
:10157000BCEF0AF0BEEF0AF0E5EF0AF03AACC3EFB9
:101580000AF0C5EF0AF0C7EF0AF0800E3A1A3CC025
:101590003DF03BC03CF03DC03BF02EC03DF032C0C2
:1015A0002EF03DC032F02FC03DF033C02FF03DC0D3
:1015B00033F030C03DF034C030F03DC034F031C0C5
:1015C0003DF035C031F03DC035F0000E3D6E3C5071
:1015D0003BC036F0376A365E000E375A37BEFAEF38
:1015E0000AF0375009E11A0E365CD8A0FAEF0AF07B
:1015F000FCEF0AF033EF0BF02E502F1030103110AB
:10160000D8A405EF0BF008EF0BF0010E09EF0BF07B
:10161000000E3D6E000E2E6E000E2F6E000E306E10
:10162000000E316E3BC03CF03CEF0BF03DA01BEFD9
:101630000BF01DEF0BF023EF0BF0D8903D300109BC
:101640003D6E25EF0BF0D8903D322EA02AEF0BF027
:101650002CEF0BF02DEF0BF03D8E31343132303268
:101660002F322E323C2A3B503C5CD8A03AEF0BF094
:101670003CEF0BF016EF0BF03ABC41EF0BF043EFF1
:101680000BF083EF0BF03C50D8A449EF0BF04BEF7D
:101690000BF055EF0BF0000E2E6E000E2F6E000EAD
:1016A000306E000E316EA4EF0CF032502E26335007
:1016B0002F22345030223550312231A062EF0BF00E
:1016C00064EF0BF010EF0CF03DA069EF0BF06BEF47
:1016D0000BF071EF0BF0D8903D3001093D6E73EFC8
:1016E0000BF0D8903D322EA078EF0BF07AEF0BF094
:1016F0007BEF0BF03D8E3134313230322F322E32CF
:101700003C2A10EF0CF032502E5C33502F583450DE
:1017100030583150800A366E3550800A3658D8B06D
:1017200094EF0BF096EF0BF0C1EF0BF02E50325C04
:10173000366E2F503358376E30503458386E315023
:101740003558396EFF0E36242E6EFF0E37202F6E61
:10175000FF0E3820306EFF0E3920316E800E3A1A9F
:101760003D6C3D50D8A4B7EF0BF0B9EF0BF0C9EFCB
:101770000BF0010E2E26000E2F2230223122C9EF4F
:101780000BF032502E5E33502F5A3450305A3550B1
:10179000315A2E502F1030103110D8A4D2EF0BF048
:1017A000D4EF0BF009EF0CF03D50D8A4DAEF0BF0BA
:1017B000DCEF0BF009EF0CF0000E2E6E000E2F6E1A
:1017C000000E306E000E316EA4EF0CF0D8902E3665
:1017D0002F36303631363DAEF0EF0BF0F2EF0BF036
:1017E000F3EF0BF02E803DA0F8EF0BF0FAEF0BF0CB
:1017F000FEEF0BF0D8803D3600EF0CF0D8903D3670
:101800003C50D8B406EF0CF008EF0CF009EF0CF0E8
:101810003C0630AE0EEF0CF010EF0CF0E6EF0BF0E4
:10182000000E3B6E3DAE17EF0CF019EF0CF031EFF0
:101830000CF03DC036F07F0E3616D8B422EF0CF017
:1018400024EF0CF028EF0CF0010E3B6E31EF0CF0A2
:101850002EA02DEF0CF02FEF0CF031EF0CF024EF59
:101860000CF03B50D8B437EF0CF039EF0CF064EFCC
:101870000CF0010E2E26000E2F223022312231A034
:1018800044EF0CF046EF0CF064EF0CF02EC036F095
:101890002FC037F030C038F031C039F03934393228
:1018A00038323732363236C02EF037C02FF038C0DB
:1018B00030F039C031F03C28D8B461EF0CF063EF60
:1018C0000CF064EF0CF03C2A3C28D8B46AEF0CF022
:1018D0006CEF0CF074EF0CF03C50D8A472EF0CF0ED
:1018E00074EF0CF086EF0CF0000E2E6E000E2F6ED3
:1018F000000E306E000E316E3C50D8A482EF0CF01A
:1019000084EF0CF086EF0CF0000E3A6E3CA08BEFEB
:101910000CF08DEF0CF090EF0CF0308E91EF0CF09E
:10192000309ED8903C30316E3AAE99EF0CF09BEF80
:101930000CF09CEF0CF0318E2EC02EF02FC02FF04B
:1019400030C030F031C031F01200A1C0D9FFA2C0C8
:10195000DAFFDECFF6FFDDCFF7FF0800F550250AEE
:10196000D8A4B5EF0CF0B7EF0CF0C0EF0EF0A1C0AB
:10197000D9FFA2C0DAFFDE2A000EDD22000E000130
:10198000FA6F000EF96FF9C0FDF0FAC0FEF0FB69C6
:10199000FC69A1C0D9FFA2C0DAFFDECFF6FFDDCF20
:1019A000F7FF0800F5502E0AD8A4D9EF0CF0DBEFB2
:1019B0000CF059EF0DF0000EFC6F000EFB6FA1C094
:1019C000D9FFA2C0DAFFDE2A000EDD22A1C0D9FFB6
:1019D000A2C0DAFFDECFF6FFDDCFF7FF0800F5503B
:1019E0002A0AD8A4F6EF0CF0F8EF0CF015EF0DF082
:1019F000A1C0D9FFA2C0DAFFDE2A000EDD22A3C0FB
:101A0000D9FFA4C0DAFFDFCFA5F0020EDE26DFCFBC
:101A1000A6F0000EDD22A5C0D9FFA6C0DAFFDECFFA
:101A2000FBF0DDCFFCF059EF0DF0A1C0D9FFA2C053
:101A3000DAFFDECF08F0DDCF09F040EC16F008C089
:101A4000FBF009C0FCF02CEF0DF0A1C0D9FFA2C043
:101A5000DAFFDE2A000EDD22D00E0001A56FFF0E98
:101A6000A66FA1C0D9FFA2C0DAFFDECFF6FFDDCF9F
:101A7000F7FF0800F550A76FA86BA551A727A6513F
:101A8000A823A8510AE10A0EA75DD8A04AEF0DF0DD
:101A90004DEF0DF0010E4EEF0DF0000EA96FAA6B89
:101AA000A951AA11D8A457EF0DF059EF0DF025EF69
:101AB0000DF0A1C0D9FFA2C0DAFFDECFF6FFDDCF67
:101AC000F7FF0800F550076E086AD8EC1CF00750C5
:101AD0000001B16FB151D8B470EF0DF072EF0DF09D
:101AE000ACEF0DF0A1C0D9FFA2C0DAFFDECFA5F0A8
:101AF000DDCFA6F0010EA527000EA623A5C0F6FF98
:101B0000A6C0F7FF0800F550076E086AD8EC1CF075
:101B100007500001B26FB251D8B491EF0DF093EFBE
:101B20000DF0ACEF0DF0A1C0D9FFA2C0DAFFDECFFF
:101B3000A5F0DDCFA6F0020EA527000EA623A5C0B6
:101B4000F6FFA6C0F7FF0800F550076E086AD8EC4C
:101B50001CF007500001B36F660EB119D8A4B3EFA3
:101B60000DF0B5EF0DF0F5EF0DF0A1C0D9FFA2C05B
:101B7000DAFFDECFF6FFDDCFF7FF0800F5CFB4F0D8
:101B8000A1C0D9FFA2C0DAFFDE2A000EDD22A3C069
:101B9000D9FFA4C0DAFFDFCFA5F0040EDE26DFCF29
:101BA000A6F0000EDD22A5C0D9FFA6C0DAFFDECF69
:101BB000ADF0DECFAEF0DECFAFF0DECFB0F09FC045
:101BC00060F0A0C061F0ADC062F0AEC063F0AFC025
:101BD00064F0B0C065F0B4C066F019EC04F060C009
:101BE0009FF061C0A0F0DBEF0EF0B10E016E000EB1
:101BF000026E2E0E036E080E046E000E066E020EAE
:101C0000056E49EC19F001500210D8A40AEF0EF04D
:101C10000CEF0EF088EF0EF0A1C0D9FFA2C0DAFFE2
:101C2000DECFA5F0DDCFA6F0010E0001A527000E46
:101C3000A623A5C0F6FFA6C0F7FF0800F5CFB4F0B5
:101C4000BF0EA56FFF0EA66FA1C0D9FFA2C0DAFF1D
:101C5000DECFF6FFDDCFF7FF0800F550A76FA86BCA
:101C6000A551A727A651A823A8510AE11A0EA75DDE
:101C7000D8A03DEF0EF040EF0EF0010E41EF0EF058
:101C8000000EAB6FAC6BAB51AC11D8B44AEF0EF099
:101C90004CEF0EF066EF0EF0A3C0D9FFA4C0DAFF40
:101CA000DFCFA5F0040EDE26DFCFA6F0000EDD228A
:101CB000A5C0D9FFA6C0DAFFDECFADF0DECFAEF013
:101CC000DECFAFF0DECFB0F07EEF0EF0A3C0D9FFD5
:101CD000A4C0DAFFDFCFA5F0040EDE26DFCFA6F02A
:101CE000000EDD22A5C0D9FFA6C0DAFFDECFADF021
:101CF000DECFAEF0DECFAFF0DECFB0F0020EA1C08F
:101D0000D9FFA2C0DAFFDE26000EDD22DFEF0DF0E4
:101D1000A1C0D9FFA2C0DAFFDECFF6FFDDCFF7FF0B
:101D20000800F550250AD8A498EF0EF09AEF0EF0AF
:101D3000B2EF0EF0A1C0D9FFA2C0DAFFDE2A000E7A
:101D4000DD22000E026E250E016E9FC003F0A0C0C2
:101D500004F0B4EC19F0000E0001A06F010E9F6FAB
:101D6000DBEF0EF0A1C0D9FFA2C0DAFFDE2A000E21
:101D7000DD22000E0001A06F000E9F6FDBEF0EF062
:101D8000A1C0D9FFA2C0DAFFDECFF6FFDDCFF7FF9B
:101D90000800F550016E026A9FC003F0A0C004F075
:101DA000B4EC19F0A1C0D9FFA2C0DAFFDE2A000E00
:101DB000DD22ABEF0EF012001850800B216E185090
:101DC0001824276E17AEE7EF0EF0E9EF0EF0EAEFFA
:101DD0000EF027802750D8B4F0EF0EF0F2EF0EF09F
:101DE00005EF0FF02728D8A4F8EF0EF0FAEF0EF069
:101DF00002EF0FF0000E156E000E166E000E176E3D
:101E0000000E186E178E0DEF0FF0000E156E000EFF
:101E1000166E000E176E000E186E1C50800B211AE5
:101E20001C501C24266E1BAE18EF0FF01AEF0FF09B
:101E30001BEF0FF026802650D8B421EF0FF023EFD0
:101E40000FF036EF0FF02628D8A429EF0FF02BEF74
:101E50000FF033EF0FF0000E196E000E1A6E000E29
:101E60001B6E000E1C6E1B8E3EEF0FF0000E196EE7
:101E7000000E1A6E000E1B6E000E1C6E2650D8B49B
:101E800044EF0FF046EF0FF04EEF0FF02750D8A4BD
:101E90004CEF0FF04EEF0FF058EF0FF0000E156EF5
:101EA000000E166E000E176E000E186EF0EF10F09A
:101EB0001B501502F3CF2CF0F4CF2DF02C50226ED6
:101EC000236A246A256A2D50286E296A2A6A2B6A99
:101ED0001A501602F3CF2CF0F4CF2DF02C502226FE
:101EE000000E2322242225222D502826000E2922EE
:101EF0002A222B2219501702F3CF2CF0F4CF2DF009
:101F00002C502226000E2322242225222D50282662
:101F1000000E29222A222B2224C025F023C024F0DF
:101F200022C023F0226A19501602F3CF2CF0F4CF0E
:101F30002DF02C5022262D502322000E2422000E9C
:101F400025221A501502F3CF2CF0F4CF2DF02C508F
:101F500022262D502322000E2422000E252224C0EA
:101F600025F023C024F022C023F0226A1950150264
:101F7000F3CF2CF0F4CF2DF02C5022262D5023221D
:101F8000000E2422000E25221B501602F3CF2CF047
:101F9000F4CF2DF02C5028262D502922000E2A2275
:101FA000000E2B221A501702F3CF2CF0F4CF2DF095
:101FB0002C5028262D502922000E2A22000E2B22DA
:101FC0001B501702F3CF2CF0F4CF2DF02C501D6EC8
:101FD0002D501E6E1F6A206A1FC020F01EC01FF009
:101FE0001DC01EF01D6A1D5028261E5029221F509C
:101FF0002A2220502B2222C01DF023C01EF024C014
:102000001FF025C020F0190E0BEF10F0D8902032F1
:102010001F321E321D32E82E06EF10F01D5028260A
:102020001E5029221F502A2220502B2224C025F086
:1020300023C024F022C023F0226A265027C01DF0BE
:102040001E6A1D26000E1E22820E1D242C6EFF0EFF
:102050001E202D6E41EF10F0D890283629362A36F2
:102060002B3625AE36EF10F038EF10F039EF10F0C8
:102070002880D89022362336243625362C06D8A040
:102080002D062AAE46EF10F048EF10F02CEF10F0BE
:10209000000E266E25AE4FEF10F051EF10F075EFE9
:1020A00010F0FF0E22141D6EFF0E23141E6EFF0E85
:1020B00024141F6E7F0E2514206E1D501E101F103D
:1020C0002010D8B466EF10F068EF10F06CEF10F04D
:1020D000010E266E75EF10F028A071EF10F073EF6F
:1020E00010F075EF10F068EF10F02650D8B47BEFC9
:1020F00010F07DEF10F0A1EF10F0010E2826000E79
:1021000029222A222B222BA088EF10F08AEF10F030
:10211000A1EF10F028C01DF029C01EF02AC01FF04A
:102120002BC020F0203420321F321E321D321DC041
:1021300028F01EC029F01FC02AF020C02BF02C4A26
:102140002D2A2DBEACEF10F02D5008E12C28D8A080
:10215000ACEF10F0AEEF10F0B8EF10F0000E286EFC
:10216000000E296E800E2A6E7F0E2B6EE6EF10F0A9
:102170002DBEC5EF10F02D5006E12C04D8B0C3EFF2
:1021800010F0C5EF10F0D1EF10F0000E286E000E29
:10219000296E000E2A6E000E2B6E000E216EE6EFE9
:1021A00010F02CC027F0FF0E2816FF0E29167F0E08
:1021B0002A16000E2B1627A0E0EF10F0E2EF10F029
:1021C000E3EF10F02A8ED89027302B6E21502B127F
:1021D00028C015F029C016F02AC017F02BC018F03F
:1021E00012003150800B3E6E31503124456E30AEBE
:1021F000FCEF10F0FEEF10F0FFEF10F045804550BF
:10220000D8B405EF11F007EF11F01CEF11F04528DD
:10221000D8A40DEF11F00FEF11F017EF11F0000E31
:102220002E6E000E2F6E000E306E000E316E308E50
:10223000000E316E24EF11F0000E2E6E000E2F6E88
:10224000000E306E000E316E3550800B3E1A355048
:102250003524466E34AE2FEF11F031EF11F032EF2E
:1022600011F046804650D8B438EF11F03AEF11F033
:102270004FEF11F04628D8A440EF11F042EF11F0D3
:102280004AEF11F0000E326E000E336E000E346E07
:10229000000E356E348E000E356E57EF11F0000EC5
:1022A000326E000E336E000E346E000E356E3250FC
:1022B000331034103510D8A460EF11F062EF11F034
:1022C0007AEF11F0000E2E6E000E2F6E000E306EA3
:1022D000000E316E800E30127F0E31123E503112E0
:1022E0002EC02EF02FC02FF030C030F031C031F0B2
:1022F000BDEF12F04550D8A480EF11F082EF11F03D
:102300008CEF11F0000E2E6E000E2F6E000E306E50
:10231000000E316EBDEF12F0465045C036F0376A00
:10232000365E000E375A7F0E36243F6E000E372081
:10233000406E2EC03AF02FC03BF030C03CF031C0B0
:102340003DF0000E2E6E000E2F6E000E306E000E51
:10235000316E000E416E000E426E000E436E000E96
:10236000446E000E466EEDEF11F04650D8B4BBEF50
:1023700011F0BDEF11F0D4EF11F0D8903A363B36A2
:102380003C363D36D8902E362F363036313644AE78
:10239000CCEF11F0CEEF11F0CFEF11F02E80D890EE
:1023A000413642364336443632503A5C33503B581D
:1023B00034503C5835503D58D8A0E1EF11F0E3EFD0
:1023C00011F0ECEF11F0448C32503A5E33503B5A2E
:1023D00034503C5A35503D5A462A190E4664F3EFA4
:1023E00011F0F5EF11F0B5EF11F03A503B103C1041
:1023F0003D10D8B4FEEF11F000EF12F018EF12F01C
:10240000418018EF12F0D8902E362F363036313604
:1024100044AE0DEF12F00FEF12F010EF12F02E801D
:10242000D89041364236433644363F06D8A040065F
:1024300030AE1DEF12F01FEF12F003EF12F0000E9E
:10244000466E44AE26EF12F028EF12F04CEF12F079
:10245000FF0E4114366EFF0E4214376EFF0E43140A
:10246000386E7F0E4414396E3650371038103910DC
:10247000D8B43DEF12F03FEF12F043EF12F0010E2F
:10248000466E4CEF12F02EA048EF12F04AEF12F019
:102490004CEF12F03FEF12F04650D8B452EF12F06A
:1024A00054EF12F078EF12F0010E2E26000E2F22BC
:1024B0003022312231A05FEF12F061EF12F078EF9D
:1024C00012F02EC036F02FC037F030C038F031C0D7
:1024D00039F03934393238323732363236C02EF0AC
:1024E00037C02FF038C030F039C031F03F4A402AB1
:1024F00040BE83EF12F0405008E13F28D8A083EFA0
:1025000012F085EF12F090EF12F0000E406E3F686F
:10251000000E2E6E000E2F6E000E306E000E316E0D
:1025200040BE9DEF12F0405006E13F04D8B09BEF53
:1025300012F09DEF12F0ABEF12F0000E406E000EA5
:102540003F6E000E2E6E000E2F6E000E306E000ECF
:10255000316E000E3E6E3FC045F045A0B2EF12F066
:10256000B4EF12F0B7EF12F0308EB8EF12F0309EE9
:10257000D8904530316E6EEF11F0120048C03EF039
:1025800049C03FF04AC040F04BC041F04CC042F05F
:102590004DC043F04EC044F04FC045F0D8EC1DF0A4
:1025A0003EC058F03FC059F040C05AF041C05BF007
:1025B00046C0D9FF47C0DAFFDECF15F0DECF16F0F8
:1025C000DECF17F0DECF18F058C019F059C01AF05E
:1025D0005AC01BF05BC01CF0DCEC0EF015C050F0D4
:1025E00016C051F017C052F018C053F058C019F07F
:1025F00059C01AF05AC01BF05BC01CF020EE04F06A
:102600004650D9264750DA22DECF15F0DECF16F03D
:10261000DECF17F0DECF18F0DCEC0EF015C02EF098
:1026200016C02FF017C030F018C031F020EE18F0AF
:102630004650D9264750DA22DECF32F0DECF33F0D3
:10264000DECF34F0DECF35F045EC0AF020EE14F0AA
:102650004650D9264750DA222EC0DEFF2FC0DEFFBB
:1026600030C0DEFF31C0DEFF20EE1CF04650D92620
:102670004750DA22DECF42F0DECF43F0DECF44F027
:10268000DECF45F058C03EF059C03FF05AC040F090
:102690005BC041F0D8EC1DF03EC015F03FC016F015
:1026A00040C017F041C018F020EE08F04650D9267F
:1026B0004750DA22DECF19F0DECF1AF0DECF1BF062
:1026C000DECF1CF0DCEC0EF020EE20F04650D926D8
:1026D0004750DA2215C0DEFF16C0DEFF17C0DEFF4E
:1026E00018C0DEFF50C032F051C033F052C034F099
:1026F00053C035F020EE14F04650D9264750DA2268
:10270000DECF2EF0DECF2FF0DECF30F0DECF31F097
:1027100045EC0AF02EC054F02FC055F030C056F0F2
:1027200031C057F054C02EF055C02FF056C030F0D5
:1027300057C031F020EE20F04650D9264750DA221B
:10274000DECF32F0DECF33F0DECF34F0DECF35F047
:1027500045EC0AF020EE24F04650D9264750DA2204
:102760002EC0DEFF2FC0DEFF30C0DEFF31C0DEFF37
:1027700020EE0CF04650D9264750DA22DECF2EF05C
:10278000DECF2FF0DECF30F0DECF31F020EE24F0C0
:102790004650D9264750DA22DECF32F0DECF33F072
:1027A000DECF34F0DECF35F048EC18F0D8B0DBEFF8
:1027B00013F0DDEF13F0F3EF13F020EE0CF04650C2
:1027C000D9264750DA2210EE24F04650E126475031
:1027D000E222DECFE6FFDECFE6FFDECFE6FFDECF92
:1027E000E6FF2CEF14F020EE24F04650D926475097
:1027F000DA22DECF2EF0DECF2FF0DECF30F0DECFCC
:1028000031F020EE10F04650D9264750DA22DECFC4
:1028100032F0DECF33F0DECF34F0DECF35F048ECEF
:1028200018F0D8B016EF14F018EF14F02CEF14F0E5
:1028300020EE10F04650D9264750DA2210EE24F050
:102840004650E1264750E222DECFE6FFDECFE6FF2C
:10285000DECFE6FFDECFE6FF20EE14F04650D926AD
:102860004750DA2210EE18F04650E1264750E22297
:10287000DECFE6FFDECFE6FFDECFE6FFDECFE6FF10
:1028800020EE1CF04650D9264750DA2258C0DEFF11
:1028900059C0DEFF5AC0DEFF5BC0DEFF20EE24F031
:1028A0004650D9264750DA22DECF46F0DECF47F039
:1028B000DECF48F0DECF49F0120000C157F001C171
:1028C00058F002C159F003C15AF047C057F048C050
:1028D00058F049C059F04AC05AF0810E4B6EFF0EB5
:1028E0004C6E57C04DF058C04EF059C04FF05AC012
:1028F00050F0180E81EF14F0D89050324F324E3213
:102900004D32E82E7CEF14F04D504B24556E000EE6
:102910004C20566E56BE96EF14F0565009E1170E35
:10292000555CD8A096EF14F098EF14F0A2EF14F0D5
:1029300047C047F048C048F049C049F04AC04AF093
:1029400065EF15F056BEA7EF14F0A9EF14F019EFDC
:1029500015F055C04BF0FF0E4C6EFF0E4D6E7F0E06
:102960004E6E000E4F6E4B66B8EF14F0C0EF14F0D1
:102970004F344F324E324D324C324B2EB3EF14F0B7
:102980004CC051F04DC052F04EC053F04FC054F007
:10299000515057144B6E525058144C6E535059149A
:1029A0004D6E54505A144E6E4B504C104D104E10EC
:1029B000D8A4DDEF14F0DFEF14F0E1EF14F098EF9E
:1029C00014F057C04BF058C04CF059C04DF05AC0ED
:1029D0004EF0200EF1EF14F0D8904E324D324C32C2
:1029E0004B32E82EECEF14F04B504C104D104E10C3
:1029F000D8B4FDEF14F0FFEF14F007EF15F05150CD
:102A00005726525058225350592254505A22511C82
:102A10004B6E521C4C6E531C4D6E541C4E6E4B50E4
:102A200057164C5058164D5059164E505A165DEFC9
:102A300015F057C04BF058C04CF059C04DF05AC07B
:102A40004EF0200E29EF15F0D8904E324D324C3218
:102A50004B32E82E24EF15F04B504C104D104E1019
:102A6000D8A435EF15F037EF15F041EF15F0000E53
:102A7000576E000E586E000E596E000E5A6E5DEFC6
:102A800015F0D89057344B6E58344C6E59344D6E07
:102A90005A344E6E4B504C104D104E10D8B453EF6C
:102AA00015F055EF15F05DEF15F0000E576E000EA6
:102AB000586E800E596EBF0E5A6E57C047F058C000
:102AC00048F059C049F05AC04AF01200096E095046
:102AD000D8B46DEF15F06FEF15F091EF15F004BE5F
:102AE00076EF15F074EF15F091EF15F001C005F0D9
:102AF00002C006F003C007F004C008F0051E061E61
:102B0000071E081E052A000E06220722082205C0FD
:102B10000BF006C00CF007C00DF008C00EF099EFE6
:102B200015F001C00BF002C00CF003C00DF004C0A2
:102B30000EF00150021003100410D8A4A2EF15F0FB
:102B4000A4EF15F0AEEF15F0000E016E000E026E50
:102B5000000E036E000E046E3FEF16F0960E0A6E26
:102B6000B8EF15F00A2AD8900E320D320C320B3223
:102B7000000E0B14056E000E0C14066E000E0D14E4
:102B8000076EFE0E0E14086E055006100710081092
:102B9000D8A4CDEF15F0CFEF15F0B2EF15F0DDEFC3
:102BA00015F00A2A010E0B26000E0C220D220E2211
:102BB000D8900E320D320C320B32000E0B14056E13
:102BC000000E0C14066E000E0D14076EFF0E0E1490
:102BD000086E0550061007100810D8A4F2EF15F083
:102BE000F4EF15F0D1EF15F0FCEF15F00A06D890D0
:102BF0000B360C360D360E360DBE01EF16F003EF18
:102C000016F00BEF16F0020E0A6009EF16F00BEF4C
:102C100016F0F6EF15F00AB010EF16F012EF16F0FE
:102C200013EF16F00D9ED8900A320AC005F0066A1E
:102C3000076A086A05C008F0076A066A056A05504F
:102C40000B1206500C1207500D1208500E120950AC
:102C5000D8B42DEF16F02FEF16F037EF16F004BEB4
:102C600036EF16F034EF16F037EF16F00E8E0BC07D
:102C700001F00CC002F00DC003F00EC004F0120011
:102C8000000E166E000E156E000E0F6E000E0E6E0C
:102C90004CEF16F0084A092A010E146E08C0F6FF20
:102CA00009C0F7FF0800F550200AD8B45AEF16F013
:102CB0005CEF16F079EF16F0F70E0A6EFF0E0B6E52
:102CC00008C0F6FF09C0F7FF0800F5500C6E0D6A4A
:102CD0000A500C260B500D220D5009E1050E0C5C1C
:102CE000D8A075EF16F077EF16F079EF16F0000E1A
:102CF000146E14C010F0116A10501110D8A483EF94
:102D000016F085EF16F04AEF16F08FEF16F0000E72
:102D10000F6E010E0E6E084A092AC4EF16F008C0A5
:102D2000F6FF09C0F7FF0800F5500A6E0B6A0B505A
:102D3000000AD8B49EEF16F0C4EF16F00A502B0A22
:102D4000D8B48BEF16F0060AD8B487EF16F0C4EFAC
:102D500016F015C001F016C002F0000E046E0A0E47
:102D6000036EDBEC1EF008C0F6FF09C0F7FF080099
:102D7000F550015E000E025A300E0124156E000E51
:102D80000220166E8BEF16F0D00E0A6EFF0E0B6E41
:102D900008C0F6FF09C0F7FF0800F5500C6E0D6A79
:102DA0000A500C260B500D220D500AE10A0E0C5C45
:102DB000D8A0DDEF16F0E0EF16F0010EE1EF16F00F
:102DC000000E126E136A12501310D8A4EAEF16F018
:102DD000ECEF16F0A9EF16F00E500F10D8A4F3EF99
:102DE00016F0F5EF16F003EF17F015C00AF016C055
:102DF0000BF00A1E0B1E0A4A0B2A0AC008F00BC071
:102E000009F007EF17F015C008F016C009F012001E
:102E1000C150F00B0E09C16E9280000E946EEEEC64
:102E20001EF0250E0F6E800E0E6EB0EC1DF0000E23
:102E3000016E010EDDEC1BF021EE74F010EECFF010
:102E4000270EDBCFE3FFE806FCE2CF0E016E000E9B
:102E5000026E6EEC1CF0000E196E000E1A6EFA0E69
:102E60001B6E430E1C6E000E88EC1DF00FC015F09B
:102E700010C016F011C017F012C018F0DCEC0EF004
:102E800015C02EF016C02FF017C030F018C031F06A
:102E9000000E326EC00E336E7F0E346E440E356EF1
:102EA000F1EC10F02EC00CF12FC00DF130C00EF17E
:102EB00031C00FF1CF0E466E000E476E000E486E09
:102EC000000E496E700E4A6E420E4B6E0CC14CF0F5
:102ED0000DC14DF00EC14EF00FC14FF0BEEC12F01F
:102EE00046C008F147C009F148C00AF149C00BF1DA
:102EF00008C151F009C152F00AC153F00BC154F09E
:102F00002AEC1CF0020E0001CE6F040ECD6FBA0E3B
:102F1000E82EFED7CD2FFCD7CE2FFAD700F0600ECB
:102F20000001BD6F010EBE6F010EBF6F080EC06FB6
:102F3000000EC16F000EC26F700EC36F420EC46FE1
:102F400036EC1DF0600E026E010E036EADEC1EF04D
:102F5000600E0001BD6F010EBE6F120EBF6F080E36
:102F6000C06F0CC1C1F00DC1C2F00EC1C3F00FC1E2
:102F7000C4F036EC1DF0600E026E010E036EADEC77
:102F80001EF02BEF17F000EF00F049344A34506E7A
:102F90005050D8A4CEEF17F0D0EF17F0DAEF17F0BB
:102FA000000E476E000E486E000E496E000E4A6E0F
:102FB00047EF18F047C04BF048C04CF049C04DF007
:102FC0004AC04EF0200EEAEF17F0D8904E324D3244
:102FD0004C324B32E82EE5EF17F04B504F6E498ED6
:102FE000FF0E4716FF0E4816FF0E4916000E4A1632
:102FF000960E505E50BE01EF18F0FFEF17F017EF7E
:1030000018F05050800A970FD8B009EF18F00BEF66
:1030100018F00DEF18F0D0EF17F0D8904A3249327F
:1030200048324732503E0DEF18F02FEF18F01F0EC8
:1030300050641DEF18F01FEF18F027EF18F0D0EFD5
:1030400017F0D8904736483649364A365006505021
:10305000D8A42DEF18F02FEF18F021EF18F04F50F3
:10306000D8B435EF18F037EF18F03FEF18F04A1EDC
:10307000491E481E476C000E482249224A2247C07A
:1030800047F048C048F049C049F04AC04AF0120031
:10309000000E2E14366E000E2F14376E800E301474
:1030A000386E7F0E3114396E3650371038103910A3
:1030B000D8A45DEF18F05FEF18F067EF18F0000E7E
:1030C0002E6E000E2F6E000E306E000E316E000E52
:1030D0003214366E000E3314376E800E3414386E90
:1030E0007F0E3514396E3650371038103910D8A489
:1030F0007CEF18F07EEF18F086EF18F0000E326EBD
:10310000000E336E000E346E000E356E31AE8BEF56
:1031100018F08DEF18F096EF18F02E6C2F1ED8B027
:103120002F2A301ED8B0302A800E315635AE9BEF94
:1031300018F09DEF18F0A6EF18F0326C331ED8B0DF
:10314000332A341ED8B0342A800E3556000E2E1A7B
:10315000000E2F1A000E301A800E311A000E321A8D
:10316000000E331A000E341A800E351A32502E5CBF
:1031700033502F583450305835503158D8B0C3EFF1
:1031800018F0C5EF18F0C8EF18F0D890C9EF18F094
:10319000D880120004C10BF005C10CF006C10DF07F
:1031A00007C10EF001C00BF002C00CF003C00DF01F
:1031B00004C00EF00BC005F00CC006F00DC007F007
:1031C0000EC008F0180EEAEF18F0D8900832073257
:1031D00006320532E82EE5EF18F00550096E0A6A4E
:1031E00009500A10D8A4F7EF18F0F9EF18F019EF0A
:1031F00019F0D8900B34056E0C34066E0D34076E42
:103200000E34086E0550061007100810D8A40BEFF6
:1032100019F00DEF19F013EF19F0000E026E020E07
:10322000016E48EF19F0000E026E030E016E48EFBA
:1032300019F009280A10D8A420EF19F022EF19F08C
:1032400044EF19F00BC005F00CC006F00DC007F0FC
:103250000EC008F0090ED890053606360736083637
:10326000E82E2BEF19F00550061007100810D8B4FF
:103270003CEF19F03FEF19F0010E40EF19F0000E8E
:10328000016E026A48EF19F0000E026E040E016E24
:10329000120001C008F002C009F003C00AF004C027
:1032A0000BF00506D8A00606052806E10628D8A4D6
:1032B0005CEF19F05EEF19F06BEF19F0000E026E83
:1032C000000E016EB3EF19F0084A092A0A4A0B2AC8
:1032D0000506D8A0060608C0D9FF09C0DAFFDF50EE
:1032E000D8B475EF19F077EF19F0A2EF19F00AC012
:1032F000F6FF0BC0F7FF0800F5500009D8B483EFC4
:1033000019F085EF19F0A2EF19F005500610D8B4A6
:103310008CEF19F08EEF19F0A2EF19F008C0D9FF69
:1033200009C0DAFFDF50076E0AC0F6FF0BC0F7FFD7
:103330000800F5500718D8B4A0EF19F0A2EF19F063
:1033400064EF19F008C0D9FF09C0DAFFDF50076E3B
:103350000AC0F6FF0BC0F7FF0800F550075C016ECE
:10336000026AD8A00206120003500410D8B4BBEFC2
:1033700019F0BDEF19F0C6EF19F003500410D8A4EE
:10338000C4EF19F0C6EF19F0CBEF19F0015007ECBC
:103390001FF018EF1AF020EE04F00350D926045065
:1033A000DA22DE50DE10D8B4D8EF19F0DAEF19F0D7
:1033B000F5EF19F020EE04F00350D9260450DA227C
:1033C00010EE02F00350E1260450E222DE50E65CEB
:1033D000E650800A096EDE50800A0958D8B0F3EF33
:1033E00019F0F5EF19F018EF1AF020EE02F0035083
:1033F000D9260450DA22DECF05F0DDCF06F003C077
:10340000D9FF04C0DAFFDECF07F0DDCF08F00550AA
:103410000724D96E06500820DA6E01C0DFFF20EEC7
:1034200002F00350D9260450DA22DE2A000EDD22F3
:1034300012000001FDA11FEF1AF021EF1AF02BEF8F
:103440001AF013C00AF014C00BF011C00CF012C037
:103450000DF0FBEC1DF016BE30EF1AF032EF1AF053
:1034600038EF1AF015C01AF016C01BF03CEF1AF036
:10347000000E1B6E000E1A6E000E196E000E186EF6
:103480004EEF1AF0000E026E200E016E11C003F016
:1034900012C004F0B4EC19F0184A192A1A50185C3A
:1034A0001950800A176E1B50800A1758D8A05BEF7E
:1034B0001AF05DEF1AF042EF1AF00001FDB163EF70
:1034C0001AF065EF1AF06FEF1AF013C00AF014C08B
:1034D0000BF011C00CF012C00DF0FBEC1DF013C08E
:1034E00001F014C002F092EC1EF01A500124116E8B
:1034F0001B500220126E1200000E066E04BE85EFF5
:103500001AF083EF1AF08BEF1AF0036C041ED8B098
:10351000042A010E066E02BE92EF1AF090EF1AF026
:1035200098EF1AF0016C021ED8B0022A010E061A9A
:10353000000E086E000E076E03500410D8B4A3EFFF
:103540001AF0A5EF1AF0CDEF1AF0010E056EADEFEF
:103550001AF0D89003360436052A04AEB2EF1AF0FA
:10356000B4EF1AF0A9EF1AF0D890073608360350D6
:10357000015C04500258D8A0C0EF1AF0C2EF1AF054
:10358000C7EF1AF00350015E0450025A0780D8902A
:1035900004320332052EB4EF1AF00650D8B4D3EF3C
:1035A0001AF0D5EF1AF0D9EF1AF0076C081ED8B050
:1035B000082A07C001F008C002F01200000E066ED3
:1035C00002BEE7EF1AF0E5EF1AF0EDEF1AF0016C2A
:1035D000021ED8B0022A010E066E04BEF4EF1AF0E5
:1035E000F2EF1AF0F8EF1AF0036C041ED8B0042AB8
:1035F00003500410D8B4FFEF1AF001EF1BF025EFD1
:103600001BF0010E056E09EF1BF0D890033604364F
:10361000052A04AE0EEF1BF010EF1BF005EF1BF0B8
:103620000350015C04500258D8A019EF1BF01BEFA7
:103630001BF01FEF1BF00350015E0450025AD8909C
:1036400004320332052E10EF1BF00650D8B42BEFD6
:103650001BF02DEF1BF031EF1BF0016C021ED8B0F8
:10366000022A01C001F002C002F01200000E011493
:10367000096E000E02140A6E800E03140B6E7F0E8C
:1036800004140C6E09500A100B100C10D8A44BEF48
:103690001BF04DEF1BF055EF1BF0000E016E000EFE
:1036A000026E000E036E000E046E000E0514096E0D
:1036B000000E06140A6E800E07140B6E7F0E08149F
:1036C0000C6E09500A100B100C10D8A46AEF1BF0F6
:1036D0006CEF1BF074EF1BF0000E056E000E066E13
:1036E000000E076E000E086E055001180FE106501F
:1036F00002180CE10750031809E108500418D8B467
:1037000084EF1BF086EF1BF089EF1BF0D8908AEF57
:103710001BF0D8801200000E096E000E0A6E000E1B
:103720000B6E000E0C6E0550061007100810D8B472
:103730009CEF1BF09EEF1BF0D4EF1BF0010E0D6E03
:10374000A8EF1BF0D89005360636073608360D2A46
:1037500008AEADEF1BF0AFEF1BF0A2EF1BF0D8905F
:1037600009360A360B360C360550015C06500258F5
:103770000750035808500458D8A0C1EF1BF0C3EFFE
:103780001BF0CCEF1BF00550015E0650025A0750AB
:10379000035A0850045A0980D8900832073206327A
:1037A00005320D2EAFEF1BF009C001F00AC002F088
:1037B0000BC003F00CC004F01200026EC70ECB6EFB
:1037C0000204D8A4E6EF1BF0E8EF1BF0FAEF1BF0C1
:1037D0000104D8A4EEEF1BF0F0EF1BF0FAEF1BF0A2
:1037E0000C0EBD6E000EBE6E0C0EBA6E000EBB6EE1
:1037F00024EF1CF00204D8A400EF1CF002EF1CF030
:1038000010EF1CF00150D8A408EF1CF00AEF1CF0D8
:1038100010EF1CF00C0EBD6E000EBE6E24EF1CF0FF
:103820000250D8A416EF1CF018EF1CF024EF1CF087
:103830000104D8A41EEF1CF020EF1CF024EF1CF0B4
:103840000C0EBA6E000EBB6E000ECA6E000ECC6E71
:10385000CA841200000E326E000E336EC80E346E33
:10386000420E356E51C02EF052C02FF053C030F0D2
:1038700054C031F0F1EC10F02EC019F02FC01AF046
:1038800030C01BF031C01CF0CB50556E566A010E93
:103890005526000E562255C001F056C002F0000E0B
:1038A00002BEFF0E036E046E010E66EC15F001C041
:1038B00015F002C016F003C017F004C018F0DCECDD
:1038C0000EF015C047F016C048F017C049F018C0F8
:1038D0004AF0C5EC17F04750BE6E120020EE14F00F
:1038E0000150D9260250DA22000EDE6E000EDE6E86
:1038F000000EDE6E000EDD6E20EE1CF00150D926AB
:103900000250DA22000EDE6E000EDE6E000EDE6E5B
:10391000000EDD6E20EE20F00150D9260250DA2292
:10392000000EDE6E000EDE6E000EDE6E000EDD6E30
:1039300020EE18F00150D9260250DA22000EDE6E79
:10394000000EDE6E000EDE6E000EDD6E1200B7C0E1
:10395000BBF0B8C0BCF0000E0001F86F000EF76FAE
:10396000C5EF1CF0B5C09FF0B6C0A0F0BB0EA16FB4
:10397000000EA26FB9C0A3F0BAC0A4F0A5EC0CF081
:1039800000019F51F727A051F823BBC0F6FFBCC030
:10399000F7FF0800F5500009D8A4D1EF1CF0D3EFD1
:1039A0001CF0B2EF1CF0F7C0B5F0F8C0B6F0120092
:1039B000BF0E096EFF0E0A6E07C00BF008C00CF0B8
:1039C00009500B260A500C220C500AE11A0E0B5C0F
:1039D000D8A0EDEF1CF0F0EF1CF0010EF1EF1CF0A1
:1039E000000E0D6E0E6A0D500E10D8B4FAEF1CF0DA
:1039F000FCEF1CF003EF1DF0200E0710076E0850BF
:103A0000086E07EF1DF007C007F008C008F01200AD
:103A100003C007F004C008F001C009F002C00AF0BA
:103A20000750056E0850066E074A082A05C0F6FFC3
:103A300006C0F7FFF86A09C0D9FF0AC0DAFF094AD1
:103A40000A2A070EF76403D00800F55005D0F6CF18
:103A5000E1FFF7CFE2FFE750DF6EDF50D8A433EF8E
:103A60001DF035EF1DF010EF1DF01200C10E00012A
:103A7000C56F000EC66FBDC0C7F0BEC0C8F0000E57
:103A8000CA6F000EC96F000ECC6F000ECB6FC70E51
:103A9000B56F000EB66FBFC0B7F0C0C0B8F0C50EAE
:103AA000B96F000EBA6FA7EC1CF00001C951BD251B
:103AB000D96ECA51BE21DA6E000EDF6E1200010E01
:103AC000076E200E01180210D8B469EF1DF06BEFDD
:103AD0001DF084EF1DF0F70E036EFF0E046E01C0A3
:103AE00005F002C006F003500526045006220650D9
:103AF00009E1050E055CD8A080EF1DF082EF1DF0F6
:103B000084EF1DF0000E076E07C001F0026A12007C
:103B1000146E000EC26E14C013F013461346C2504A
:103B20001318C30B1318C26EC280C282C2B29BEFBD
:103B30001DF09DEF1DF096EF1DF0C290C3CF01F078
:103B4000C4CF02F0036A046A000E66EC15F001C0EF
:103B50000FF002C010F003C011F004C012F0120008
:103B6000000E016E120E026E7A0E036E000E046ECF
:103B70000EC005F00FC006F0076A086A8BEC1BF058
:103B8000070EC8EF1DF0D890043203320232013222
:103B9000E82EC3EF1DF00104AF6EAC94AC98AB8E71
:103BA000AC9CAC8AAB9CAB88F28EF28C9D8A1200E6
:103BB000000E421A000E431A000E441A800E451AD7
:103BC0003EC02EF03FC02FF040C030F041C031F079
:103BD00042C032F043C033F044C034F045C035F049
:103BE00045EC0AF02EC03EF02FC03FF030C040F050
:103BF00031C041F01200000E106E000E0F6E0CEF7F
:103C00001EF00EC001F0026A0CC003F00DC004F0FB
:103C1000B4EC19F00F4A102A0F500A24D96E105034
:103C20000B20DA6EDF500E6E0E50D8A41AEF1EF085
:103C30001CEF1EF001EF1EF012008A0EF66E3D0E14
:103C4000F76E000EF86E01EE74F010EE2CF0090025
:103C5000F5CFEEFFE550E150FAE101EE00F0740E11
:103C6000EE6AE806FDE100EEF7F0080EEE6AE806FF
:103C7000FDE1000EF86E000108EF17F0BF0E036EB5
:103C8000FF0E046E01C005F002C006F003500526C9
:103C90000450062206500AE11A0E055CD8A053EF24
:103CA0001EF056EF1EF0010E57EF1EF0000E016ED3
:103CB000026A12000150021003100410D8B463EF1E
:103CC0001EF065EF1EF06DEF1EF0000E011A000EE3
:103CD000021A000E031A800E041A01C001F002C07D
:103CE00002F003C003F004C004F01200D00E036E13
:103CF000FF0E046E01C005F002C006F00350052659
:103D00000450062206500AE10A0E055CD8A08BEF8B
:103D10001EF08EEF1EF0010E8FEF1EF0000E016EF2
:103D2000026A120001C003F002C004F09AEF1EF014
:103D3000014A022A01C0D9FF02C0DAFFDF50D8A42D
:103D4000A4EF1EF0A6EF1EF098EF1EF00350015CEA
:103D5000016E04500258026E1200B8EF1EF002C04D
:103D6000D9FF03C0DAFFDF50FCEC1EF0024A032A41
:103D700002C0D9FF03C0DAFFDF50D8A4C2EF1EF0A3
:103D8000C4EF1EF0AFEF1EF01200000000404EB96D
:103D9000C23C000000000000C8420000000000001B
:103DA0000000000000000000000000000000000013
:103DB00000000000704201500302F3CF05F0F4CF81
:103DC00006F001500402F350062602500302F3509D
:103DD000062605C001F006C002F01200CF0EC11683
:103DE000000EC26EC050C70B1809C06EC050F80B51
:103DF0000509C06EC08E1200016EACA202EF1FF06A
:103E000004EF1FF0FDEF1EF001C0ADFF1200120025
:020000040020DA
:08000000FFFFFFFFFFFFFFFF00
:020000040030CA
:0E000000000C191EFF8385FF0FC00FE00F409C
:00000001FF
