:04000000C8EF39F01C
:107390000001CBEF39F00F0EC16E000E946E010E9E
:1073A000016E010E74EC3AF0000E3D6E000E3E6E62
:1073B000480E3F6E420E406EECEC39F0000E3D6E12
:1073C000000E3E6E480E3F6E420E406E30EC3AF0BC
:1073D000D4EF39F000EF00F0000E056E000E066EDF
:1073E000C80E076E420E086E3DC001F03EC002F0AE
:1073F0003FC003F040C004F01EEC3CF001C01EF0A2
:1074000002C01FF003C020F004C021F0CB50416E39
:10741000426A010E4126000E422241C001F042C0E4
:1074200002F0000E02BEFF0E036E046E010E44EC6D
:107430003BF001C01AF002C01BF003C01CF004C0F6
:107440001DF0EBEC3DF01AC033F01BC034F01CC053
:1074500035F01DC036F0C1EC3AF03350BE6E12006C
:10746000000E056E000E066EC80E076E420E086E08
:107470003DC001F03EC002F03FC003F040C004F048
:107480001EEC3CF001C01EF002C01FF003C020F053
:1074900004C021F0CB50416E426A010E4126000E1D
:1074A000422241C001F042C002F0000E02BEFF0EB7
:1074B000036E046E010E44EC3BF001C01AF002C0F2
:1074C0001BF003C01CF004C01DF0EBEC3DF01AC033
:1074D00033F01BC034F01CC035F01DC036F0C1ECD9
:1074E0003AF03350BB6E1200026EC70ECB6E020430
:1074F000D8A47DEF3AF07FEF3AF091EF3AF0010433
:10750000D8A485EF3AF087EF3AF091EF3AF00C0EFD
:10751000BD6E000EBE6E0C0EBA6E000EBB6EBBEFE3
:107520003AF00204D8A497EF3AF099EF3AF0A7EFB7
:107530003AF00150D8A49FEF3AF0A1EF3AF0A7EF4C
:107540003AF00C0EBD6E000EBE6EBBEF3AF002506C
:10755000D8A4ADEF3AF0AFEF3AF0BBEF3AF0010448
:10756000D8A4B5EF3AF0B7EF3AF0BBEF3AF00C0E13
:10757000BA6E000EBB6E000ECA6E000ECC6ECA84D0
:107580001200353436343C6E3C50D8A4CAEF3AF081
:10759000CCEF3AF0D6EF3AF0000E336E000E346EB8
:1075A000000E356E000E366E43EF3BF033C037F001
:1075B00034C038F035C039F036C03AF0200EE6EF6E
:1075C0003AF0D8903A32393238323732E82EE1EF99
:1075D0003AF037503B6E358EFF0E3316FF0E3416E1
:1075E000FF0E3516000E3616960E3C5E3CBEFDEFC5
:1075F0003AF0FBEF3AF013EF3BF03C50800A970F64
:10760000D8B005EF3BF007EF3BF009EF3BF0CCEFD4
:107610003AF0D89036323532343233323C3E09EFCC
:107620003BF02BEF3BF01F0E3C6419EF3BF01BEFE0
:107630003BF023EF3BF0CCEF3AF0D89033363436C2
:10764000353636363C063C50D8A429EF3BF02BEFBC
:107650003BF01DEF3BF03B50D8B431EF3BF033EF44
:107660003BF03BEF3BF0361E351E341E336C000EF4
:1076700034223522362233C033F034C034F035C0E2
:1076800035F036C036F01200096E0950D8B44BEF11
:107690003BF04DEF3BF06FEF3BF004BE54EF3BF09F
:1076A00052EF3BF06FEF3BF001C005F002C006F077
:1076B00003C007F004C008F0051E061E071E081EC2
:1076C000052A000E06220722082205C00BF006C07C
:1076D0000CF007C00DF008C00EF077EF3BF001C0D2
:1076E0000BF002C00CF003C00DF004C00EF001500E
:1076F000021003100410D8A480EF3BF082EF3BF09F
:107700008CEF3BF0000E016E000E026E000E036E59
:10771000000E046E1DEF3CF0960E0A6E96EF3BF0E5
:107720000A2AD8900E320D320C320B32000E0B1496
:10773000056E000E0C14066E000E0D14076EFE0E84
:107740000E14086E0550061007100810D8A4ABEFF1
:107750003BF0ADEF3BF090EF3BF0BBEF3BF00A2A84
:10776000010E0B26000E0C220D220E22D8900E3296
:107770000D320C320B32000E0B14056E000E0C1481
:10778000066E000E0D14076EFF0E0E14086E0550E7
:10779000061007100810D8A4D0EF3BF0D2EF3BF052
:1077A000AFEF3BF0DAEF3BF00A06D8900B360C3621
:1077B0000D360E360DBEDFEF3BF0E1EF3BF0E9EFAB
:1077C0003BF0020E0A60E7EF3BF0E9EF3BF0D4EF4D
:1077D0003BF00AB0EEEF3BF0F0EF3BF0F1EF3BF0A7
:1077E0000D9ED8900A320AC005F0066A076A086A38
:1077F00005C008F0076A066A056A05500B120650B4
:107800000C1207500D1208500E120950D8B40BEF8D
:107810003CF00DEF3CF015EF3CF004BE14EF3CF0F3
:1078200012EF3CF015EF3CF00E8E0BC001F00CC0D7
:1078300002F00DC003F00EC004F012000450800BE3
:10784000116E04500424186E03AE29EF3CF02BEFA8
:107850003CF02CEF3CF018801850D8B432EF3CF0DC
:1078600034EF3CF049EF3CF01828D8A43AEF3CF054
:107870003CEF3CF044EF3CF0000E016E000E026E57
:10788000000E036E000E046E038E000E046E51EFA8
:107890003CF0000E016E000E026E000E036E000E34
:1078A000046E0850800B111A08500824196E07AE98
:1078B0005CEF3CF05EEF3CF05FEF3CF0198019505C
:1078C000D8B465EF3CF067EF3CF07CEF3CF0192852
:1078D000D8A46DEF3CF06FEF3CF077EF3CF0000E7A
:1078E000056E000E066E000E076E000E086E078E07
:1078F000000E086E84EF3CF0000E056E000E066E62
:10790000000E076E000E086E0550061007100810D6
:10791000D8A48DEF3CF08FEF3CF0A7EF3CF0000EC9
:10792000016E000E026E000E036E000E046E800EDD
:1079300003127F0E04121150041201C001F002C0A4
:1079400002F003C003F004C004F0EAEF3DF0185069
:10795000D8A4ADEF3CF0AFEF3CF0B9EF3CF0000E37
:10796000016E000E026E000E036E000E046EEAEF52
:107970003DF0195018C009F00A6A095E000E0A5A53
:107980007F0E0924126E000E0A20136E01C00DF046
:1079900002C00EF003C00FF004C010F0000E016E24
:1079A000000E026E000E036E000E046E000E146ECA
:1079B000000E156E000E166E000E176E000E196E7C
:1079C0001AEF3DF01950D8B4E8EF3CF0EAEF3CF084
:1079D00001EF3DF0D8900D360E360F361036D890A8
:1079E000013602360336043617AEF9EF3CF0FBEFF2
:1079F0003CF0FCEF3CF00180D8901436153616367A
:107A0000173605500D5C06500E5807500F58085099
:107A10001058D8A00EEF3DF010EF3DF019EF3DF0FB
:107A2000178C05500D5E06500E5A07500F5A08501D
:107A3000105A192A190E196420EF3DF022EF3DF07B
:107A4000E2EF3CF00D500E100F101010D8B42BEFD9
:107A50003DF02DEF3DF045EF3DF0148045EF3DF05A
:107A6000D890013602360336043617AE3AEF3DF0B1
:107A70003CEF3DF03DEF3DF00180D89014361536D7
:107A8000163617361206D8A0130603AE4AEF3DF09D
:107A90004CEF3DF030EF3DF0000E196E17AE53EF96
:107AA0003DF055EF3DF079EF3DF0FF0E1414096EF7
:107AB000FF0E15140A6EFF0E16140B6E7F0E1714B0
:107AC0000C6E09500A100B100C10D8B46AEF3DF080
:107AD0006CEF3DF070EF3DF0010E196E79EF3DF067
:107AE00001A075EF3DF077EF3DF079EF3DF06CEFE1
:107AF0003DF01950D8B47FEF3DF081EF3DF0A5EF98
:107B00003DF0010E0126000E02220322042204A0F1
:107B10008CEF3DF08EEF3DF0A5EF3DF001C009F098
:107B200002C00AF003C00BF004C00CF00C340C329D
:107B30000B320A32093209C001F00AC002F00BC050
:107B400003F00CC004F0124A132A13BEB0EF3DF04C
:107B5000135008E11228D8A0B0EF3DF0B2EF3DF08D
:107B6000BDEF3DF0000E136E1268000E016E000EA8
:107B7000026E000E036E000E046E13BECAEF3DF0DF
:107B8000135006E11204D8B0C8EF3DF0CAEF3DF043
:107B9000D8EF3DF0000E136E000E126E000E016E57
:107BA000000E026E000E036E000E046E000E116ECB
:107BB00012C018F018A0DFEF3DF0E1EF3DF0E4EF68
:107BC0003DF0038EE5EF3DF0039ED8901830046E33
:107BD0009BEF3CF012001D50800B266E1D501D24A3
:107BE0002C6E1CAEF6EF3DF0F8EF3DF0F9EF3DF0F6
:107BF0002C802C50D8B4FFEF3DF001EF3EF014EF95
:107C00003EF02C28D8A407EF3EF009EF3EF011EF2C
:107C10003EF0000E1A6E000E1B6E000E1C6E000E63
:107C20001D6E1C8E1CEF3EF0000E1A6E000E1B6EB9
:107C3000000E1C6E000E1D6E2150800B261A215066
:107C400021242B6E20AE27EF3EF029EF3EF02AEFE5
:107C50003EF02B802B50D8B430EF3EF032EF3EF0A8
:107C600045EF3EF02B28D8A438EF3EF03AEF3EF037
:107C700042EF3EF0000E1E6E000E1F6E000E206ED4
:107C8000000E216E208E4DEF3EF0000E1E6E000E97
:107C90001F6E000E206E000E216E2B50D8B453EFD5
:107CA0003EF055EF3EF05DEF3EF02C50D8A45BEF78
:107CB0003EF05DEF3EF067EF3EF0000E1A6E000EF4
:107CC0001B6E000E1C6E000E1D6EFFEF3FF020506D
:107CD0001A02F3CF31F0F4CF32F03150276E286A18
:107CE000296A2A6A32502D6E2E6A2F6A306A1F5016
:107CF0001B02F3CF31F0F4CF32F031502726000EC3
:107D0000282229222A2232502D26000E2E222F220E
:107D100030221E501C02F3CF31F0F4CF32F031503C
:107D20002726000E282229222A2232502D26000E34
:107D30002E222F22302229C02AF028C029F027C065
:107D400028F0276A1E501B02F3CF31F0F4CF32F037
:107D50003150272632502822000E2922000E2A22D6
:107D60001F501A02F3CF31F0F4CF32F031502726F2
:107D700032502822000E2922000E2A2229C02AF081
:107D800028C029F027C028F0276A1E501A02F3CF16
:107D900031F0F4CF32F03150272632502822000E35
:107DA0002922000E2A2220501B02F3CF31F0F4CFFB
:107DB00032F031502D2632502E22000E2F22000E8E
:107DC00030221F501C02F3CF31F0F4CF32F031508B
:107DD0002D2632502E22000E2F22000E302220504F
:107DE0001C02F3CF31F0F4CF32F03150226E32501A
:107DF000236E246A256A24C025F023C024F022C003
:107E000023F0226A22502D2623502E2224502F2286
:107E10002550302227C022F028C023F029C024F0AA
:107E20002AC025F0190E1AEF3FF0D89025322432DF
:107E300023322232E82E15EF3FF022502D26235018
:107E40002E2224502F222550302229C02AF028C06B
:107E500029F027C028F0276A2B502CC022F0236A73
:107E60002226000E2322820E2224316EFF0E2320B2
:107E7000326E50EF3FF0D8902D362E362F363036FA
:107E80002AAE45EF3FF047EF3FF048EF3FF02D803F
:107E9000D8902736283629362A363106D8A0320619
:107EA0002FAE55EF3FF057EF3FF03BEF3FF0000EA6
:107EB0002B6E2AAE5EEF3FF060EF3FF084EF3FF0B5
:107EC000FF0E2714226EFF0E2814236EFF0E2914B6
:107ED000246E7F0E2A14256E2250231024102510A4
:107EE000D8B475EF3FF077EF3FF07BEF3FF0010E36
:107EF0002B6E84EF3FF02DA080EF3FF082EF3FF03C
:107F000084EF3FF077EF3FF02B50D8B48AEF3FF08B
:107F10008CEF3FF0B0EF3FF0010E2D26000E2E2229
:107F20002F22302230A097EF3FF099EF3FF0B0EFD3
:107F30003FF02DC022F02EC023F02FC024F030C01F
:107F400025F02534253224322332223222C02DF06E
:107F500023C02EF024C02FF025C030F0314A322A41
:107F600032BEBBEF3FF0325008E13128D8A0BBEF62
:107F70003FF0BDEF3FF0C7EF3FF0000E2D6E000E5B
:107F80002E6E800E2F6E7F0E306EF5EF3FF032BEFC
:107F9000D4EF3FF0325006E13104D8B0D2EF3FF0D9
:107FA000D4EF3FF0E0EF3FF0000E2D6E000E2E6E8E
:107FB000000E2F6E000E306E000E266EF5EF3FF0B5
:107FC00031C02CF0FF0E2D16FF0E2E167F0E2F1631
:107FD000000E30162CA0EFEF3FF0F1EF3FF0F2EF84
:107FE0003FF02F8ED8902C30306E265030122DC09E
:107FF0001AF02EC01BF02FC01CF030C01DF0120074
:020000040020DA
:08000000FFFFFFFFFFFFFFFF00
:020000040030CA
:0E000000000C191EFF8385FF0FC00FE00F409C
:00000001FF
