:0400000007EF00F016
:10000800068209ED00F096EF00F00600F2A20FEF6D
:1000180000F011EF00F024EF00F08CB016EF00F0C4
:1000280019EF00F0010E1AEF00F0000EFF0A016E42
:100038008C500118FE0B01188C6EF29259EF00F0EB
:10004800F0A029EF00F02BEF00F03FEF00F08CB2AA
:1000580030EF00F033EF00F0010E34EF00F0000E47
:10006800FF0A016E01468C500118FD0B01188C6EB9
:10007800F09059EF00F0F0A244EF00F046EF00F0E6
:1000880059EF00F08CB44BEF00F04EEF00F0010E8A
:100098004FEF00F0000EFF0A016E014601468C503A
:1000A8000118FB0B01188C6EF092069211000F0ECE
:1000B800C16E000E956E010E036E010E046E010EE8
:1000C8006AEC00F066EF00F007EF00F0056E0550EF
:1000D8008BEC00F0035080EC00F0045075EC00F05D
:1000E8001200026E938402B002D0F19801D0F18818
:1000F800F092F088F28E1200026E938202B002D063
:10010800F19A01D0F18AF090F086F28E1200026E18
:10011800938002B002D0F19C01D0F18CF292F28867
:0E012800F28E12000690069200015BEF00F0CE
:020000040020DA
:08000000FFFFFFFFFFFFFFFF00
:020000040030CA
:0E000000000C191EFF8385FF0FC00FE00F409C
:00000001FF
