:0400000007EF00F016
:10000800028209ED00F03FEF00F00600F2A40FEFC6
:1000180000F011EF00F026EF00F08AB016EF00F0C4
:1000280019EF00F0010E1AEF00F0000EFF0A016E42
:100038008A500118FE0B01188A6ED80ED76EF00E82
:10004800D66EF29402921100D59ED59CD59AD5868B
:10005800D80ED76EF00ED66EF28CF28EF28AD58E4E
:1000680012000F0EC16E000E936E28EC00F03BEFED
:1000780000F007EF00F002900292000135EF00F067
:020000040020DA
:08000000FFFFFFFFFFFFFFFF00
:020000040030CA
:0E0000000000191EFF8385FF0FC00FE00F40A8
:00000001FF
