:04000000AFEF3FF02F
:107F5E000001B9EF3FF0420ED56ED59E060ED66EDD
:107F6E00F29412000F0EC16E000E936EB2EC3FF043
:107F7E008A80030E026EE80E016ED1EC3FF08A90FD
:107F8E00030E026EE80E016ED1EC3FF0BFEF3FF034
:107F9E0000EF00F0000E056E010E046EF4EF3FF0E0
:107FAE008AB2DCEF3FF0DFEF3FF0010EE0EF3FF083
:107FBE00000EFF0A036E03468A500318FD0B0318CA
:107FCE008A6ED58EF2A4EEEF3FF0F0EF3FF0E9EFC0
:107FDE003FF0D59EF294044A052A0450015C0550E8
:107FEE000258D8B0FDEF3FF0FFEF3FF0D7EF3FF074
:027FFE0012006F
:020000040020DA
:08000000FFFFFFFFFFFFFFFF00
:020000040030CA
:0E0000000000191EFF8385FF0FC00FE00F40A8
:00000001FF
