:0400000011EF05F007
:1008000000484F4C41205155452054414C00434F26
:100810004D4F2045535441530000000E76EC04F038
:100820004E0E036EEB0EE82EFED7032EFCD700F023
:10083000C80E00D0E82EFDD7030E05EC05F00D0E16
:10084000036EFC0EE82EFED7032EFCD7030E05EC3C
:1008500005F0640EE82EFED7030E05EC05F0020E3F
:1008600005EC05F0020E05EC05F0080E05EC05F0B0
:10087000000E05EC05F00C0E05EC05F0000E05EC85
:1008800005F0060E05EC05F01200046E0404D8A471
:100890004CEF04F04EEF04F05DEF04F003507F0FD7
:1008A000076E07380F0B066E07500F0B056E0650CC
:1008B00005EC05F0055005EC05F0020E0418D8A46F
:1008C00064EF04F066EF04F075EF04F00350BF0F1F
:1008D000076E07380F0B066E07500F0B056E06509C
:1008E00005EC05F0055005EC05F01200016E01A0C5
:1008F0007CEF04F07EEF04F081EF04F08C8082EF57
:1009000004F08C9001A287EF04F089EF04F08CEFE3
:1009100004F08C828DEF04F08C9201A492EF04F02D
:1009200094EF04F097EF04F08C8498EF04F08C942B
:1009300001A69DEF04F09FEF04F0A2EF04F08C8677
:10094000A3EF04F08C961200046E04500F0B026E9D
:100950000450F00B036E8C8803380F0B76EC04F018
:100960008C8AC80E00D0E82EFDD78C9AC80E00D015
:10097000E82EFDD7025076EC04F08C8AC80E00D029
:10098000E82EFDD78C9AC80E00D0E82EFDD71200B5
:100990000F0EC16E000E956E0DEC04F018EC05F014
:1009A000010E036E010E45EC04F0010E056E080EFB
:1009B000066EEAEC04F0010E036E020E45EC04F044
:1009C0000E0E056E080E066EEAEC04F0E6EF04F07B
:1009D00000EF00F0F6EF04F005C0F6FF06C0F7FFE9
:1009E0000800F550A4EC04F0054A062A05C0F6FFFD
:1009F00006C0F7FF0800F5500009D8A402EF05F083
:100A000004EF05F0ECEF04F01200026E8C98025037
:100A100076EC04F08C8AC80E00D0E82EFDD78C9AB4
:100A20001200000EF86E080EF76E0001C8EF04F019
:0E0A3000000E05EC05F0010E05EC05F01200BD
:020000040020DA
:08000000FFFFFFFFFFFFFFFF00
:020000040030CA
:0E000000000C191EFF8385FF0FC00FE00F409C
:00000001FF
