:0400000007EF00F016
:0A0008001382DAED04F0F2EF04F0C9
:100800000043415241435445522041200D00434191
:100810005241435445522042200D0000000E096E03
:10082000000E0A6E000E0B6E000E0C6E05500610C8
:1008300007100810D8B41FEF04F021EF04F057EFB1
:1008400004F0010E0D6E2BEF04F0D890053606363D
:10085000073608360D2A08AE30EF04F032EF04F008
:1008600025EF04F0D89009360A360B360C360550C1
:10087000015C065002580750035808500458D8A08D
:1008800044EF04F046EF04F04FEF04F00550015E32
:100890000650025A0750035A0850045A0980D8904B
:1008A00008320732063205320D2E32EF04F009C04D
:1008B00001F00AC002F00BC003F00CC004F01200FB
:1008C0000F0EC16E250E0F6E800E0E6E97EC04F0AB
:1008D000410E1218D8A46FEF04F071EF04F079EF15
:1008E00004F0010E026E080E036EBFEC04F088EFF8
:1008F00004F0420E1218D8A480EF04F082EF04F046
:1009000088EF04F00E0E026E080E036EBFEC04F0CA
:10091000060E116E130E106EAE0EE82EFED7102EC0
:10092000FCD7112EFAD768EF04F007EF00F0000EA5
:10093000016E120E026E7A0E036E000E046E0EC071
:1009400005F00FC006F0076A086A0EEC04F0070E07
:10095000AFEF04F0D8900432033202320132E82EB5
:10096000AAEF04F00104AF6EAC94AC98AB8EAC9CD3
:10097000AC8AAB9CAB88F28EF28C9D8A1200CBEFD6
:1009800004F002C0F6FF03C0F7FF0800F550E7ECE3
:1009900004F0024A032A02C0F6FF03C0F7FF080072
:1009A000F5500009D8A4D7EF04F0D9EF04F0C1EF57
:1009B00004F0120006009EAAE0EF04F0E2EF04F05B
:1009C000E5EF04F0AECF12F09E9A13921100016E83
:1009D000ACA2EDEF04F0EFEF04F0E8EF04F001C09B
:1009E000ADFF1200126A13901392000EF86E080EFB
:0809F000F76E000160EF04F056
:020000040020DA
:08000000FFFFFFFFFFFFFFFF00
:020000040030CA
:0E000000000C191EFF8385FF0FC00FE00F409C
:00000001FF
