:040000007FEF1CF082
:1008000000766F6C74616A65313A20252E3166205E
:100810005600766F6C74616A65323A20252E316617
:10082000205600494E46004E414E00696E66006EED
:07083000616E006C66000020
:10083800000E0001826F000E816F62C093F063C0EA
:1008480094F064C095F065C096F096BF30EF04F060
:100858002EEF04F046EF04F0000E826F010E816F58
:1008680093C001F094C002F095C003F096C004F064
:1008780001EC1CF001C093F002C094F003C095F0A5
:1008880004C096F0000E00019A6F000E996FDFC049
:1008980085F0E0C086F081518211D8A456EF04F0AB
:1008A80058EF04F05FEF04F0E3A55DEF04F05FEFAD
:1008B80004F079EF04F081518211D8A466EF04F0B6
:1008C80068EF04F06EEF04F0000E686F2B0E676F90
:1008D80072EF04F0000E686F2D0E676F67C000F1AD
:1008E800994B9A2B8507D8A0860793C001F094C02E
:1008F80002F095C003F096C004F01BEC17F0010459
:100908000210D8A48AEF04F08CEF04F0E3EF04F0AF
:10091800BF0E5B6EFF0E5C6E000166515D6E5E6A17
:100928005B505D265C505E225E500AE11A0E5D5CEB
:10093800D8A0A1EF04F0A4EF04F0010EA5EF04F095
:10094800000E696F6A6B69516A11D8B4AEEF04F092
:10095800B0EF04F0BEEF04F0000E9925016E010E11
:100968009A21026E230E036E080E046EA6EC1AF08E
:10097800CAEF04F0000E9925016E010E9A21026E4D
:100988002B0E036E080E046EA6EC1AF00001FD0E85
:100998008527FF0E862360C011F061C012F0000E9B
:1009A800136E010E146E85C015F086C016F06AEC41
:1009B80018F011C060F012C061F047EF0AF093C060
:1009C80001F094C002F095C003F096C004F01BEC4F
:1009D80017F001500210D8A4F4EF04F0F6EF04F079
:1009E80036EF05F0BF0E5B6EFF0E5C6E00016651C0
:1009F8005D6E5E6A5B505D265C505E225E500AE169
:100A08001A0E5D5CD8A00BEF05F00EEF05F0010E95
:100A18000FEF05F0000E6B6F6C6B6B516C11D8B457
:100A280018EF05F01AEF05F028EF05F0000E9925EC
:100A3800016E010E9A21026E270E036E080E046ED7
:100A4800A6EC1AF0CAEF04F0000E9925016E010E0B
:100A58009A21026E2F0E036E080E046EA6EC1AF091
:100A6800CAEF04F0000E00019B6F000E9C6F800E11
:100A78009D6F3F0E9E6F000E986F000E976F93C08C
:100A880001F094C002F095C003F096C004F0000E87
:100A9800056E000E066E000E076E000E086E87ECDF
:100AA80019F0D8B05AEF05F05CEF05F0DFEF05F06C
:100AB8007BEF05F09BC015F09CC016F09DC017F0A9
:100AC8009EC018F0000E196E000E1A6E200E1B6ED6
:100AD800410E1C6EDFEC0EF015C09BF016C09CF0AA
:100AE80017C09DF018C09EF00001974B982B93C03B
:100AF8002EF094C02FF095C030F096C031F0000E63
:100B0800196E000E1A6E200E1B6E410E1C6E9BC0D5
:100B180015F09CC016F09DC017F09EC018F0DFECD1
:100B28000EF015C032F016C033F017C034F018C0FC
:100B380035F099EC16F0D8B0A4EF05F0A6EF05F063
:100B48005EEF05F0C6EF05F09BC02EF09CC02FF0BD
:100B58009DC030F09EC031F0000E326E000E336E34
:100B6800200E346E410E356EF4EC10F02EC09BF062
:100B78002FC09CF030C09DF031C09EF00001970757
:100B8800D8A0980793C02EF094C02FF095C030F0ED
:100B980096C031F09BC032F09CC033F09DC034F059
:100BA8009EC035F099EC16F0D8A0DDEF05F0DFEF28
:100BB80005F0A8EF05F066C007F0086A76EC1AF0B1
:100BC80007500001886F88C087F0670E8819D8A47D
:100BD800F0EF05F0F2EF05F018EF06F0E151E21141
:100BE800D8A4F9EF05F0FBEF05F0FFEF05F0000ED4
:100BF800E26F010EE16FE2BF0CEF06F0E25106E191
:100C0800E105D8B00AEF06F00CEF06F012EF06F097
:100C1800000E846F060E836F21EF06F0E1C083F0AB
:100C2800E2C084F021EF06F0E2BF1DEF06F01FEFEF
:100C380006F00CEF06F012EF06F0670E8819D8A43C
:100C480028EF06F02AEF06F059EF06F098AF38EFD4
:100C580006F0FC0E975DFF0E9859D8A036EF06F007
:100C680038EF06F057EF06F0FF0E5B6EFF0E5C6E76
:100C780083C05DF084C05EF05B505D265C505E22F0
:100C880097515D5C5E50800A5F6E9851800A5F588C
:100C9800D8A051EF06F053EF06F057EF06F0660EB6
:100CA800876F59EF06F0650E876F83C079F084C0AF
:100CB8007AF0670E8819D8A464EF06F066EF06F09C
:100CC80076EF06F0660E8719D8A46DEF06F06FEF81
:100CD80006F078EF06F098BF76EF06F074EF06F0AE
:100CE80078EF06F0794B7A2B660E8719D8A47FEF38
:100CF80006F081EF06F0A1EF06F098BF88EF06F046
:100D080086EF06F094EF06F0000E9B6F000E9C6FC6
:100D1800800E9D6F3F0E9E6F000E986F000E976FAE
:100D2800670E8819D8B49BEF06F09DEF06F0A1EF87
:100D380006F09751792798517A23000E926F000E8A
:100D4800916F93C089F094C08AF095C08BF096C0DB
:100D58008CF09BC07BF09CC07CF09DC07DF09EC059
:100D68007EF032EF07F089C02EF08AC02FF08BC0DA
:100D780030F08CC031F09BC032F09CC033F09DC085
:100D880034F09EC035F0F4EC10F02EC047F02FC0C0
:100D980048F030C049F031C04AF0C1EC12F047C009
:100DA8008DF048C08EF049C08FF04AC090F08DC0D9
:100DB80001F08EC002F08FC003F090C004F016EC72
:100DC80016F001C07FF002C080F089C02EF08AC002
:100DD8002FF08BC030F08CC031F09BC019F09CC054
:100DE8001AF09DC01BF09EC01CF08DC015F08EC07F
:100DF80016F08FC017F090C018F0DFEC0EF015C099
:100E080032F016C033F017C034F018C035F0A0EC3B
:100E18001BF02EC089F02FC08AF030C08BF031C093
:100E28008CF09BC02EF09CC02FF09DC030F09EC06F
:100E380031F0000E326E000E336E200E346E410E0D
:100E4800356EF4EC10F02EC09BF02FC09CF030C033
:100E58009DF031C09EF00001914B922B7951915D2C
:100E68009251800A5B6E7A51800A5B58D8A03FEF96
:100E780007F041EF07F0B7EF06F09BC015F09CC0F4
:100E880016F09DC017F09EC018F0000E196E000EE7
:100E98001A6EA00E1B6E400E1C6EDFEC0EF015C015
:100EA8008DF016C08EF017C08FF018C090F089C072
:100EB8002EF08AC02FF08BC030F08CC031F08DC07E
:100EC80032F08EC033F08FC034F090C035F099EC1A
:100ED80016F0D8B072EF07F074EF07F07FEF07F065
:100EE800000E00018D6F000E8E6F000E8F6F000ECA
:100EF800906FA8EF07F089C001F08AC002F08BC09C
:100F080003F08CC004F08DC005F08EC006F08FC0D1
:100F180007F090C008F087EC19F0D8A096EF07F01A
:100F280098EF07F0A8EF07F000017FB19EEF07F0F8
:100F3800A0EF07F0A8EF07F0000E8D6F000E8E6F80
:100F4800000E8F6F000E906F93C001F094C002F0F6
:100F580095C003F096C004F08DC005F08EC006F071
:100F68008FC007F090C008F048EC0AF001C089F083
:100F780002C08AF003C08BF004C08CF089C02EF048
:100F88008AC02FF08BC030F08CC031F0000E196E83
:100F9800000E1A6E200E1B6E410E1C6E7BC015F0E3
:100FA8007CC016F07DC017F07EC018F0DFEC0EF0A4
:100FB80015C032F016C033F017C034F018C035F041
:100FC80099EC16F0D8A0EBEF07F0EDEF07F016EF6D
:100FD80008F00001974B982B7BC015F07CC016F0E9
:100FE8007DC017F07EC018F0000E196E000E1A6E44
:100FF800200E1B6E410E1C6EDFEC0EF015C07BF050
:1010080016C07CF017C07DF018C07EF0660E000197
:101018008719D8A412EF08F014EF08F016EF08F0BB
:10102800794B7A2B7BC09BF07CC09CF07DC09DF0F7
:101038007EC09EF0650E00018719D8B426EF08F02F
:1010480028EF08F02EEF08F097C077F098C078F0F6
:1010580032EF08F0000E786F000E776F000E766F93
:10106800000E756F000E746F000E736F000E926F96
:10107800000E916F2DEF09F089C02EF08AC02FF075
:101088008BC030F08CC031F09BC032F09CC033F084
:101098009DC034F09EC035F0F4EC10F02EC047F03F
:1010A8002FC048F030C049F031C04AF0C1EC12F00E
:1010B80047C08DF048C08EF049C08FF04AC090F00C
:1010C8008DC001F08EC002F08FC003F090C004F014
:1010D80016EC16F001C07FF002C080F00001E3B901
:1010E80078EF08F07AEF08F097EF08F07F51801159
:1010F800D8A481EF08F083EF08F097EF08F0670EA7
:101108008819D8A48AEF08F08CEF08F097EF08F058
:1011180078BF93EF08F091EF08F097EF08F0734B62
:10112800742BE1EF08F075517611D8A49EEF08F002
:10113800A0EF08F0CAEF08F078BFA7EF08F0A5EF16
:1011480008F0CAEF08F0000E9925D96E010E9A2111
:10115800DA6E2E0EDF6E994B9A2B8507D8A086077C
:10116800000E766F010E756FCAEF08F0000E992514
:10117800D96E010E9A21DA6E300EDF6E994B9A2BDA
:101188008507D8A086077307D8A074077351741110
:10119800D8A4D1EF08F0D3EF08F0BAEF08F0000EAA
:1011A8009925D96E010E9A21DA6E7F51300FDF6EC4
:1011B800994B9A2B8507D8A0860789C02EF08AC03C
:1011C8002FF08BC030F08CC031F09BC019F09CC060
:1011D8001AF09DC01BF09EC01CF08DC015F08EC08B
:1011E80016F08FC017F090C018F0DFEC0EF015C0A5
:1011F80032F016C033F017C034F018C035F0A0EC48
:101208001BF02EC089F02FC08AF030C08BF031C09F
:101218008CF09BC02EF09CC02FF09DC030F09EC07B
:1012280031F0000E326E000E336E200E346E410E19
:10123800356EF4EC10F02EC09BF02FC09CF030C03F
:101248009DF031C09EF000017707D8A07807914B38
:10125800922B7951915D9251800A5B6E7A51800A86
:101268005B58D8B03AEF09F03CEF09F04AEF09F0C3
:101278009ABF48EF09F09A5109E14B0E995DD8A041
:1012880048EF09F04AEF09F040EF08F07551761180
:10129800D8A451EF09F053EF09F064EF09F0E3A97E
:1012A80058EF09F05AEF09F064EF09F0000E99259C
:1012B800D96E010E9A21DA6E2E0EDF6E994B9A2B9B
:1012C800000E9925D96E010E9A21DA6E000EDF6E96
:1012D800650E8719D8A473EF09F075EF09F0CFEF01
:1012E80004F0000E926F4F0E916F000E9125D96E8B
:1012F800010E9221DA6E000EDF6E000E826F000E74
:10130800816F98BF8CEF09F08AEF09F094EF09F02C
:10131800000E826F010E816F976D981FD8B0982BC1
:10132800000E846F020E836FC5EF09F09107D8A0F5
:101338009207000E9125D96E010E9221DA6E97C0A0
:1013480001F098C002F0000E046E0A0E036E2FEC36
:1013580019F00150300FDF6E97C001F098C002F00D
:10136800000E046E0A0E036ECDEC18F001C097F063
:1013780002C098F000018307D8A084078507D8A089
:10138800860797519811D8A4CCEF09F0CEEF09F051
:101398009AEF09F084BFDBEF09F0845106E1830579
:1013A800D8B0D9EF09F0DBEF09F09AEF09F091070F
:1013B800D8A0920781518211D8A4E5EF09F0E7EF90
:1013C80009F0EDEF09F0000E6E6F2B0E6D6FF1EF67
:1013D80009F0000E6E6F2D0E6D6F000E9125D96EFF
:1013E800010E9221DA6E6DC0DFFF8507D8A086074F
:1013F8009107D8A09207BF0E5B6EFF0E5C6E665118
:101408005D6E5E6A5B505D265C505E225E500AE14E
:101418001A0E5D5CD8A013EF0AF016EF0AF0010E61
:1014280017EF0AF0000E716F726B71517211D8A428
:1014380020EF0AF022EF0AF028EF0AF0000E706F92
:10144800650E6F6F2CEF0AF0000E706F450E6F6F10
:10145800000E9125D96E010E9221DA6E6FC0DFFF62
:101468008507D8A08607000E9925016E010E9A21DE
:10147800026E000E9125036E010E9221046EA6ECF9
:101488001AF0CFEF04F012000450800B0D6E0450D8
:1014980004240F6E03AE53EF0AF055EF0AF056EF2F
:1014A8000AF00F800F50D8B45CEF0AF05EEF0AF034
:1014B80073EF0AF00F28D8A464EF0AF066EF0AF079
:1014C8006EEF0AF0000E016E000E026E000E036E43
:1014D800000E046E038E000E046E7BEF0AF0000E01
:1014E800016E000E026E000E036E000E046E0850B0
:1014F800800B0E6E0D500E18D8B485EF0AF087EFEA
:101508000AF088EF0AF00D8C085008240E6E07AE1A
:1015180090EF0AF092EF0AF093EF0AF00E800E5067
:10152800D8B499EF0AF09BEF0AF0B0EF0AF00E2852
:10153800D8A4A1EF0AF0A3EF0AF0ABEF0AF0000E6F
:10154800056E000E066E000E076E000E086E078E02
:10155800000E086EB8EF0AF0000E056E000E066E5B
:10156800000E076E000E086E0F500E5CD8B0BFEF6D
:101578000AF0C1EF0AF0E8EF0AF00DACC6EF0AF086
:10158800C8EF0AF0CAEF0AF0800E0D1A0FC010F06B
:101598000EC00FF010C00EF001C010F005C001F031
:1015A80010C005F002C010F006C002F010C006F02E
:1015B80003C010F007C003F010C007F004C010F01B
:1015C80008C004F010C008F0000E106E0F500EC0D6
:1015D80009F00A6A095E000E0A5A0ABEFDEF0AF00F
:1015E8000A5009E11A0E095CD8A0FDEF0AF0FFEFD6
:1015F8000AF036EF0BF00150021003100410D8A4C3
:1016080008EF0BF00BEF0BF0010E0CEF0BF0000ED8
:10161800106E000E016E000E026E000E036E000EBC
:10162800046E0EC00FF03FEF0BF010A01EEF0BF092
:1016380020EF0BF026EF0BF0D89010300109106E58
:1016480028EF0BF0D890103201A02DEF0BF02FEF00
:101658000BF030EF0BF0108E0434043203320232F8
:1016680001320F2A0E500F5CD8A03DEF0BF03FEF70
:101678000BF019EF0BF00DBC44EF0BF046EF0BF03D
:1016880086EF0BF00F50D8A44CEF0BF04EEF0BF099
:1016980058EF0BF0000E016E000E026E000E036E86
:1016A800000E046EA7EF0CF005500126065002222A
:1016B800075003220850042204A065EF0BF067EFDF
:1016C8000BF013EF0CF010A06CEF0BF06EEF0BF0BB
:1016D80074EF0BF0D89010300109106E76EF0BF014
:1016E800D890103201A07BEF0BF07DEF0BF07EEF6E
:1016F8000BF0108E043404320332023201320F2A06
:1017080013EF0CF00550015C0650025807500358BF
:101718000450800A096E0850800A0958D8B097EF1B
:101728000BF099EF0BF0C4EF0BF00150055C096E5C
:10173800025006580A6E035007580B6E045008589A
:101748000C6EFF0E0924016EFF0E0A20026EFF0EBA
:101758000B20036EFF0E0C20046E800E0D1A106C09
:101768001050D8A4BAEF0BF0BCEF0BF0CCEF0BF095
:10177800010E0126000E022203220422CCEF0BF0F8
:101788000550015E0650025A0750035A0850045A81
:101798000150021003100410D8A4D5EF0BF0D7EFB6
:1017A8000BF00CEF0CF01050D8A4DDEF0BF0DFEFCE
:1017B8000BF00CEF0CF0000E016E000E026E000E26
:1017C800036E000E046EA7EF0CF0D89001360236B7
:1017D8000336043610AEF3EF0BF0F5EF0BF0F6EF2F
:1017E8000BF0018010A0FBEF0BF0FDEF0BF001EF09
:1017F8000CF0D880103603EF0CF0D89010360F504C
:10180800D8B409EF0CF00BEF0CF00CEF0CF00F064E
:1018180003AE11EF0CF013EF0CF0E9EF0BF0000E34
:101828000E6E10AE1AEF0CF01CEF0CF034EF0CF04B
:1018380010C009F07F0E0916D8B425EF0CF027EF79
:101848000CF02BEF0CF0010E0E6E34EF0CF001A033
:1018580030EF0CF032EF0CF034EF0CF027EF0CF017
:101868000E50D8B43AEF0CF03CEF0CF067EF0CF0E8
:10187800010E0126000E02220322042204A047EFD3
:101888000CF049EF0CF067EF0CF001C009F002C052
:101898000AF003C00BF004C00CF00C340C320B320D
:1018A8000A32093209C001F00AC002F00BC003F085
:1018B8000CC004F00F28D8B464EF0CF066EF0CF0FD
:1018C80067EF0CF00F2A0F28D8B46DEF0CF06FEF0C
:1018D8000CF077EF0CF00F50D8A475EF0CF077EF01
:1018E8000CF089EF0CF0000E016E000E026E000E77
:1018F800036E000E046E0F50D8A485EF0CF087EF2E
:101908000CF089EF0CF0000E0D6E0FA08EEF0CF0AE
:1019180090EF0CF093EF0CF0038E94EF0CF0039E15
:10192800D8900F30046E0DAE9CEF0CF09EEF0CF0CB
:101938009FEF0CF0048E01C001F002C002F003C05A
:1019480003F004C004F01200A1C0D9FFA2C0DAFF5E
:10195800DECFF6FFDDCFF7FF0800F550250AD8A443
:10196800B8EF0CF0BAEF0CF0C3EF0EF0A1C0D9FF3E
:10197800A2C0DAFFDE2A000EDD22000E0001E06FB1
:10198800000EDF6FDFC0E3F0E0C0E4F0E169E26978
:10199800A1C0D9FFA2C0DAFFDECFF6FFDDCFF7FF87
:1019A8000800F5502E0AD8A4DCEF0CF0DEEF0CF09E
:1019B8005CEF0DF0000EE26F000EE16FA1C0D9FFE1
:1019C800A2C0DAFFDE2A000EDD22A1C0D9FFA2C024
:1019D800DAFFDECFF6FFDDCFF7FF0800F5502A0A61
:1019E800D8A4F9EF0CF0FBEF0CF018EF0DF0A1C044
:1019F800D9FFA2C0DAFFDE2A000EDD22A3C0D9FF7C
:101A0800A4C0DAFFDFCFA5F0020EDE26DFCFA6F0F6
:101A1800000EDD22A5C0D9FFA6C0DAFFDECFE1F0B7
:101A2800DDCFE2F05CEF0DF0A1C0D9FFA2C0DAFF74
:101A3800DECF08F0DDCF09F0A4EC14F008C0E1F027
:101A480009C0E2F02FEF0DF0A1C0D9FFA2C0DAFF64
:101A5800DE2A000EDD22D00E0001A56FFF0EA66F54
:101A6800A1C0D9FFA2C0DAFFDECFF6FFDDCFF7FFB6
:101A78000800F550A76FA86BA551A727A651A82362
:101A8800A8510AE10A0EA75DD8A04DEF0DF050EF5E
:101A98000DF0010E51EF0DF0000EA96FAA6BA951C0
:101AA800AA11D8A45AEF0DF05CEF0DF028EF0DF055
:101AB800A1C0D9FFA2C0DAFFDECFF6FFDDCFF7FF66
:101AC8000800F550076E086A76EC1AF00750000116
:101AD800B16FB151D8B473EF0DF075EF0DF0AFEFF2
:101AE8000DF0A1C0D9FFA2C0DAFFDECFA5F0DDCF8F
:101AF800A6F0010EA527000EA623A5C0F6FFA6C0D6
:101B0800F7FF0800F550076E086A76EC1AF00750E0
:101B18000001B26FB251D8B494EF0DF096EF0DF00A
:101B2800AFEF0DF0A1C0D9FFA2C0DAFFDECFA5F05C
:101B3800DDCFA6F0020EA527000EA623A5C0F6FF4E
:101B4800A6C0F7FF0800F550076E086A76EC1AF091
:101B580007500001B36F660EB119D8A4B6EF0DF0A7
:101B6800B8EF0DF0F8EF0DF0A1C0D9FFA2C0DAFF71
:101B7800DECFF6FFDDCFF7FF0800F5CFB4F0A1C048
:101B8800D9FFA2C0DAFFDE2A000EDD22A3C0D9FFEA
:101B9800A4C0DAFFDFCFA5F0040EDE26DFCFA6F063
:101BA800000EDD22A5C0D9FFA6C0DAFFDECFADF05A
:101BB800DECFAEF0DECFAFF0DECFB0F09FC060F08A
:101BC800A0C061F0ADC062F0AEC063F0AFC064F019
:101BD800B0C065F0B4C066F01CEC04F060C09FF0C3
:101BE80061C0A0F0DEEF0EF0B10E016E000E026EC5
:101BF800330E036E080E046E000E066E020E056E9E
:101C08009AEC17F001500210D8A40DEF0EF00FEF68
:101C18000EF08BEF0EF0A1C0D9FFA2C0DAFFDECF25
:101C2800A5F0DDCFA6F0010E0001A527000EA62322
:101C3800A5C0F6FFA6C0F7FF0800F5CFB4F0BF0EA9
:101C4800A56FFF0EA66FA1C0D9FFA2C0DAFFDECF35
:101C5800F6FFDDCFF7FF0800F550A76FA86BA55179
:101C6800A727A651A823A8510AE11A0EA75DD8A054
:101C780040EF0EF043EF0EF0010E44EF0EF0000EB1
:101C8800AB6FAC6BAB51AC11D8B44DEF0EF04FEF5E
:101C98000EF069EF0EF0A3C0D9FFA4C0DAFFDFCFC2
:101CA800A5F0040EDE26DFCFA6F0000EDD22A5C0CB
:101CB800D9FFA6C0DAFFDECFADF0DECFAEF0DECFC3
:101CC800AFF0DECFB0F081EF0EF0A3C0D9FFA4C013
:101CD800DAFFDFCFA5F0040EDE26DFCFA6F0000E78
:101CE800DD22A5C0D9FFA6C0DAFFDECFADF0DECF7A
:101CF800AEF0DECFAFF0DECFB0F0020EA1C0D9FF5C
:101D0800A2C0DAFFDE26000EDD22E2EF0DF0A1C050
:101D1800D9FFA2C0DAFFDECFF6FFDDCFF7FF08005C
:101D2800F550250AD8A49BEF0EF09DEF0EF0B5EF05
:101D38000EF0A1C0D9FFA2C0DAFFDE2A000EDD2214
:101D4800000E026E250E016E9FC003F0A0C004F0C5
:101D580005EC18F0000E0001A06F010E9F6FDEEF7A
:101D68000EF0A1C0D9FFA2C0DAFFDE2A000EDD22E4
:101D7800000E0001A06F000E9F6FDEEF0EF0A1C0F5
:101D8800D9FFA2C0DAFFDECFF6FFDDCFF7FF0800EC
:101D9800F550016E026A9FC003F0A0C004F005EC84
:101DA80018F0A1C0D9FFA2C0DAFFDE2A000EDD229A
:101DB800AEEF0EF012001850800B216E1850182448
:101DC800276E17AEEAEF0EF0ECEF0EF0EDEF0EF027
:101DD80027802750D8B4F3EF0EF0F5EF0EF008EF98
:101DE8000FF02728D8A4FBEF0EF0FDEF0EF005EF5B
:101DF8000FF0000E156E000E166E000E176E000E18
:101E0800186E178E10EF0FF0000E156E000E166E7E
:101E1800000E176E000E186E1C50800B211A1C50F5
:101E28001C24266E1BAE1BEF0FF01DEF0FF01EEFEC
:101E38000FF026802650D8B424EF0FF026EF0FF0CD
:101E480039EF0FF02628D8A42CEF0FF02EEF0FF063
:101E580036EF0FF0000E196E000E1A6E000E1B6E94
:101E6800000E1C6E1B8E41EF0FF0000E196E000E57
:101E78001A6E000E1B6E000E1C6E2650D8B447EF6B
:101E88000FF049EF0FF051EF0FF02750D8A44FEFA4
:101E98000FF051EF0FF05BEF0FF0000E156E000E14
:101EA800166E000E176E000E186EF3EF10F01B5032
:101EB8001502F3CF2CF0F4CF2DF02C50226E236AAC
:101EC800246A256A2D50286E296A2A6A2B6A1A50B4
:101ED8001602F3CF2CF0F4CF2DF02C502226000E52
:101EE8002322242225222D502826000E29222A22A8
:101EF8002B2219501702F3CF2CF0F4CF2DF02C50D1
:101F08002226000E2322242225222D502826000EC8
:101F180029222A222B2224C025F023C024F022C003
:101F280023F0226A19501602F3CF2CF0F4CF2DF0CB
:101F38002C5022262D502322000E2422000E25226A
:101F48001A501502F3CF2CF0F4CF2DF02C50222686
:101F58002D502322000E2422000E252224C025F015
:101F680023C024F022C023F0226A19501502F3CFAF
:101F78002CF0F4CF2DF02C5022262D502322000EC9
:101F88002422000E25221B501602F3CF2CF0F4CF8A
:101F98002DF02C5028262D502922000E2A22000E22
:101FA8002B221A501702F3CF2CF0F4CF2DF02C501F
:101FB80028262D502922000E2A22000E2B221B50E3
:101FC8001702F3CF2CF0F4CF2DF02C501D6E2D50AE
:101FD8001E6E1F6A206A1FC020F01EC01FF01DC0A1
:101FE8001EF01D6A1D5028261E5029221F502A2225
:101FF80020502B2222C01DF023C01EF024C01FF049
:1020080025C020F0190E0EEF10F0D89020321F32A4
:102018001E321D32E82E09EF10F01D5028261E50E2
:1020280029221F502A2220502B2224C025F023C009
:1020380024F022C023F0226A265027C01DF01E6A11
:102048001D26000E1E22820E1D242C6EFF0E1E2041
:102058002D6E44EF10F0D890283629362A362B36C4
:1020680025AE39EF10F03BEF10F03CEF10F0288070
:10207800D89022362336243625362C06D8A02D06AD
:102088002AAE49EF10F04BEF10F02FEF10F0000ED2
:10209800266E25AE52EF10F054EF10F078EF10F0E6
:1020A800FF0E22141D6EFF0E23141E6EFF0E241445
:1020B8001F6E7F0E2514206E1D501E101F1020103D
:1020C800D8B469EF10F06BEF10F06FEF10F0010E5D
:1020D800266E78EF10F028A074EF10F076EF10F06D
:1020E80078EF10F06BEF10F02650D8B47EEF10F0B8
:1020F80080EF10F0A4EF10F0010E2826000E292220
:102108002A222B222BA08BEF10F08DEF10F0A4EFDA
:1021180010F028C01DF029C01EF02AC01FF02BC0E7
:1021280020F0203420321F321E321D321DC028F00C
:102138001EC029F01FC02AF020C02BF02C4A2D2ADF
:102148002DBEAFEF10F02D5008E12C28D8A0AFEF2E
:1021580010F0B1EF10F0BBEF10F0000E286E000E7B
:10216800296E800E2A6E7F0E2B6EE9EF10F02DBEC1
:10217800C8EF10F02D5006E12C04D8B0C6EF10F0CF
:10218800C8EF10F0D4EF10F0000E286E000E296E84
:10219800000E2A6E000E2B6E000E216EE9EF10F075
:1021A8002CC027F0FF0E2816FF0E29167F0E2A16C0
:1021B800000E2B1627A0E3EF10F0E5EF10F0E6EF86
:1021C80010F02A8ED89027302B6E21502B1228C061
:1021D80015F029C016F02AC017F02BC018F012000D
:1021E8003150800B3E6E31503124456E30AEFFEFDA
:1021F80010F001EF11F002EF11F045804550D8B40E
:1022080008EF11F00AEF11F01FEF11F04528D8A4DC
:1022180010EF11F012EF11F01AEF11F0000E2E6E00
:10222800000E2F6E000E306E000E316E308E000ED6
:10223800316E27EF11F0000E2E6E000E2F6E000E7D
:10224800306E000E316E3550800B3E1A35503524F5
:10225800466E34AE32EF11F034EF11F035EF11F075
:1022680046804650D8B43BEF11F03DEF11F052EFE5
:1022780011F04628D8A443EF11F045EF11F04DEFC7
:1022880011F0000E326E000E336E000E346E000E2A
:10229800356E348E000E356E5AEF11F0000E326E28
:1022A800000E336E000E346E000E356E3250331051
:1022B80034103510D8A463EF11F065EF11F07DEFFD
:1022C80011F0000E2E6E000E2F6E000E306E000EF6
:1022D800316E800E30127F0E31123E5031122EC0F8
:1022E8002EF02FC02FF030C030F031C031F0C0EFE9
:1022F80012F04550D8A483EF11F085EF11F08FEF5D
:1023080011F0000E2E6E000E2F6E000E306E000EB5
:10231800316EC0EF12F0465045C036F0376A365E6F
:10232800000E375A7F0E36243F6E000E3720406E5F
:102338002EC03AF02FC03BF030C03CF031C03DF029
:10234800000E2E6E000E2F6E000E306E000E316ED7
:10235800000E416E000E426E000E436E000E446E7B
:10236800000E466EF0EF11F04650D8B4BEEF11F0F3
:10237800C0EF11F0D7EF11F0D8903A363B363C3623
:102388003D36D8902E362F363036313644AECFEF24
:1023980011F0D1EF11F0D2EF11F02E80D890413624
:1023A80042364336443632503A5C33503B58345008
:1023B8003C5835503D58D8A0E4EF11F0E6EF11F045
:1023C800EFEF11F0448C32503A5E33503B5A3450A0
:1023D8003C5A35503D5A462A190E4664F6EF11F01C
:1023E800F8EF11F0B8EF11F03A503B103C103D10E7
:1023F800D8B401EF12F003EF12F01BEF12F0418096
:102408001BEF12F0D8902E362F363036313644AEC8
:1024180010EF12F012EF12F013EF12F02E80D89096
:1024280041364236433644363F06D8A0400630AEE1
:1024380020EF12F022EF12F006EF12F0000E466EB7
:1024480044AE29EF12F02BEF12F04FEF12F0FF0E0F
:102458004114366EFF0E4214376EFF0E4314386E69
:102468007F0E4414396E3650371038103910D8B4EE
:1024780040EF12F042EF12F046EF12F0010E466EF6
:102488004FEF12F02EA04BEF12F04DEF12F04FEF7E
:1024980012F042EF12F04650D8B455EF12F057EF51
:1024A80012F07BEF12F0010E2E26000E2F223022A2
:1024B800312231A062EF12F064EF12F07BEF12F0DC
:1024C8002EC036F02FC037F030C038F031C039F0A8
:1024D8003934393238323732363236C02EF037C0D6
:1024E8002FF038C030F039C031F03F4A402A40BEA2
:1024F80086EF12F0405008E13F28D8A086EF12F08E
:1025080088EF12F093EF12F0000E406E3F68000E55
:102518002E6E000E2F6E000E306E000E316E40BE15
:10252800A0EF12F0405006E13F04D8B09EEF12F041
:10253800A0EF12F0AEEF12F0000E406E000E3F6EEC
:10254800000E2E6E000E2F6E000E306E000E316ED5
:10255800000E3E6E3FC045F045A0B5EF12F0B7EF54
:1025680012F0BAEF12F0308EBBEF12F0309ED89016
:102578004530316E71EF11F01200CDC057F0CEC06A
:1025880058F0CFC059F0D0C05AF047C057F048C0F3
:1025980058F049C059F04AC05AF0810E4B6EFF0EF0
:1025A8004C6E57C04DF058C04EF059C04FF05AC04D
:1025B80050F0180EE5EF12F0D89050324F324E32EC
:1025C8004D32E82EE0EF12F04D504B24556E000EC0
:1025D8004C20566E56BEFAEF12F0565009E1170E0F
:1025E800555CD8A0FAEF12F0FCEF12F006EF13F0EA
:1025F80047C047F048C048F049C049F04AC04AF0CF
:10260800C9EF13F056BE0BEF13F00DEF13F07DEF8B
:1026180013F055C04BF0FF0E4C6EFF0E4D6E7F0E43
:102628004E6E000E4F6E4B661CEF13F024EF13F046
:102638004F344F324E324D324C324B2E17EF13F08F
:102648004CC051F04DC052F04EC053F04FC054F042
:10265800515057144B6E525058144C6E53505914D5
:102668004D6E54505A144E6E4B504C104D104E1027
:10267800D8A441EF13F043EF13F045EF13F0FCEF4C
:1026880012F057C04BF058C04CF059C04DF05AC02A
:102698004EF0200E55EF13F0D8904E324D324C329A
:1026A8004B32E82E50EF13F04B504C104D104E109B
:1026B800D8B461EF13F063EF13F06BEF13F05150E0
:1026C8005726525058225350592254505A22511CBE
:1026D8004B6E521C4C6E531C4D6E541C4E6E4B5020
:1026E80057164C5058164D5059164E505A16C1EFA1
:1026F80013F057C04BF058C04CF059C04DF05AC0B9
:102708004EF0200E8DEF13F0D8904E324D324C32F1
:102718004B32E82E88EF13F04B504C104D104E10F2
:10272800D8A499EF13F09BEF13F0A5EF13F0000E68
:10273800576E000E586E000E596E000E5A6EC1EF9D
:1027480013F0D89057344B6E58344C6E59344D6E44
:102758005A344E6E4B504C104D104E10D8B4B7EF43
:1027680013F0B9EF13F0C1EF13F0000E576E000E1F
:10277800586E800E596EBF0E5A6E57C047F058C03B
:1027880048F059C049F05AC04AF01200096E095081
:10279800D8B4D1EF13F0D3EF13F0F5EF13F004BE74
:1027A800DAEF13F0D8EF13F0F5EF13F001C005F0EE
:1027B80002C006F003C007F004C008F0051E061E9C
:1027C800071E081E052A000E06220722082205C039
:1027D8000BF006C00CF007C00DF008C00EF0FDEFBE
:1027E80013F001C00BF002C00CF003C00DF004C0E0
:1027F8000EF00150021003100410D8A406EF14F0D4
:1028080008EF14F012EF14F0000E016E000E026EC5
:10281800000E036E000E046EA3EF14F0960E0A6EFF
:102828001CEF14F00A2AD8900E320D320C320B32FB
:10283800000E0B14056E000E0C14066E000E0D141F
:10284800076EFE0E0E14086E0550061007100810CD
:10285800D8A431EF14F033EF14F016EF14F041EF71
:1028680014F00A2A010E0B26000E0C220D220E224D
:10287800D8900E320D320C320B32000E0B14056E4E
:10288800000E0C14066E000E0D14076EFF0E0E14CB
:10289800086E0550061007100810D8A456EF14F05B
:1028A80058EF14F035EF14F060EF14F00A06D890E2
:1028B8000B360C360D360E360DBE65EF14F067EF8D
:1028C80014F06FEF14F0020E0A606DEF14F06FEF62
:1028D80014F05AEF14F00AB074EF14F076EF14F015
:1028E80077EF14F00D9ED8900A320AC005F0066AF8
:1028F800076A086A05C008F0076A066A056A05508B
:102908000B1206500C1207500D1208500E120950E7
:10291800D8B491EF14F093EF14F09BEF14F004BEC9
:102928009AEF14F098EF14F09BEF14F00E8E0BC092
:1029380001F00CC002F00DC003F00EC004F012004C
:10294800000E166E000E156E000E0F6E000E0E6E47
:10295800B0EF14F0084A092A010E146E08C0F6FFF9
:1029680009C0F7FF0800F550200AD8B4BEEF14F0EC
:10297800C0EF14F0DDEF14F0F70E0A6EFF0E0B6EC9
:1029880008C0F6FF09C0F7FF0800F5500C6E0D6A85
:102998000A500C260B500D220D5009E1050E0C5C57
:1029A800D8A0D9EF14F0DBEF14F0DDEF14F0000E2F
:1029B800146E14C010F0116A10501110D8A4E7EF6B
:1029C80014F0E9EF14F0AEEF14F0F3EF14F0000E8A
:1029D8000F6E010E0E6E084A092A28EF15F008C07E
:1029E800F6FF09C0F7FF0800F5500A6E0B6A0B5096
:1029F800000AD8B402EF15F028EF15F00A502B0A98
:102A0800D8B4EFEF14F0060AD8B4EBEF14F028EFBF
:102A180015F015C001F016C002F0000E046E0A0E83
:102A2800036E6CEC1CF008C0F6FF09C0F7FF080045
:102A3800F550015E000E025A300E0124156E000E8C
:102A48000220166EEFEF14F0D00E0A6EFF0E0B6E1A
:102A580008C0F6FF09C0F7FF0800F5500C6E0D6AB4
:102A68000A500C260B500D220D500AE10A0E0C5C80
:102A7800D8A041EF15F044EF15F0010E45EF15F021
:102A8800000E126E136A12501310D8A44EEF15F0F0
:102A980050EF15F00DEF15F00E500F10D8A457EFAA
:102AA80015F059EF15F067EF15F015C00AF016C0CC
:102AB8000BF00A1E0B1E0A4A0B2A0AC008F00BC0AC
:102AC80009F06BEF15F015C008F016C009F01200F8
:102AD800C150F00B0D09C16E92809282000E956E66
:102AE80090EC1CF0DCEC19F0000E196E000E1A6E5A
:102AF800A00E1B6E400E1C6E000E54EC1BF00FC097
:102B080015F010C016F011C017F012C018F0DFEC65
:102B18000EF015C02EF016C02FF017C030F018C0F8
:102B280031F0000E326EC00E336E7F0E346E440EDE
:102B3800356EF4EC10F02EC0D9F02FC0DAF030C0AA
:102B4800DBF031C0DCF0000E196E000E1A6EA00E1C
:102B58001B6E400E1C6E010E54EC1BF00FC015F0DE
:102B680010C016F011C017F012C018F0DFEC0EF00C
:102B780015C02EF016C02FF017C030F018C031F075
:102B8800000E326EC00E336E7F0E346E440E356EFC
:102B9800F4EC10F02EC0D5F02FC0D6F030C0D7F02E
:102BA80031C0D8F0E50E0001BD6F000EBE6F010EFA
:102BB800BF6F080EC06FD9C0C1F0DAC0C2F0DBC069
:102BC800C3F0DCC0C4F002EC1BF0500E0001BD6F76
:102BD800010EBE6F120EBF6F080EC06FD5C0C1F0D8
:102BE800D6C0C2F0D7C0C3F0D8C0C4F002EC1BF006
:102BF800020E036E010E45EC1AF0E50E056E000E8E
:102C0800066E54EC1CF0020E036E020E45EC1AF030
:102C1800500E056E010E066E54EC1CF078EF15F0A0
:102C280000EF00F0033404340A6E0A50D8A41FEFF2
:102C380016F021EF16F02BEF16F0000E016E000EC5
:102C4800026E000E036E000E046E98EF16F001C0BF
:102C580005F002C006F003C007F004C008F0200E1B
:102C68003BEF16F0D8900832073206320532E82ECC
:102C780036EF16F00550096E038EFF0E0116FF0E93
:102C88000216FF0E0316000E0416960E0A5E0ABE02
:102C980052EF16F050EF16F068EF16F00A50800A5F
:102CA800970FD8B05AEF16F05CEF16F05EEF16F0FB
:102CB80021EF16F0D89004320332023201320A3E74
:102CC8005EEF16F080EF16F01F0E0A646EEF16F036
:102CD80070EF16F078EF16F021EF16F0D890013665
:102CE8000236033604360A060A50D8A47EEF16F0D8
:102CF80080EF16F072EF16F00950D8B486EF16F090
:102D080088EF16F090EF16F0041E031E021E016CE9
:102D1800000E02220322042201C001F002C002F0C8
:102D280003C003F004C004F01200000E2E14366E27
:102D3800000E2F14376E800E3014386E7F0E31144B
:102D4800396E3650371038103910D8A4AEEF16F057
:102D5800B0EF16F0B8EF16F0000E2E6E000E2F6EC4
:102D6800000E306E000E316E000E3214366E000EFC
:102D78003314376E800E3414386E7F0E3514396E66
:102D88003650371038103910D8A4CDEF16F0CFEFE1
:102D980016F0D7EF16F0000E326E000E336E000EEE
:102DA800346E000E356E31AEDCEF16F0DEEF16F045
:102DB800E7EF16F02E6C2F1ED8B02F2A301ED8B091
:102DC800302A800E315635AEECEF16F0EEEF16F0E5
:102DD800F7EF16F0326C331ED8B0332A341ED8B051
:102DE800342A800E3556000E2E1A000E2F1A000EA9
:102DF800301A800E311A000E321A000E331A000EE5
:102E0800341A800E351A32502E5C33502F583450F5
:102E1800305835503158D8B014EF17F016EF17F076
:102E280019EF17F0D8901AEF17F0D8801200D1C018
:102E38000BF0D2C00CF0D3C00DF0D4C00EF001C01E
:102E48000BF002C00CF003C00DF004C00EF00BC074
:102E580005F00CC006F00DC007F00EC008F0180E03
:102E68003BEF17F0D8900832073206320532E82EC9
:102E780036EF17F00550096E0A6A09500A10D8A4EF
:102E880048EF17F04AEF17F06AEF17F0D8900B34B5
:102E9800056E0C34066E0D34076E0E34086E055040
:102EA800061007100810D8A45CEF17F05EEF17F0B3
:102EB80064EF17F0000E026E020E016E99EF17F024
:102EC800000E026E030E016E99EF17F009280A1022
:102ED800D8A471EF17F073EF17F095EF17F00BC048
:102EE80005F00CC006F00DC007F00EC008F0090E82
:102EF800D8900536063607360836E82E7CEF17F0E8
:102F08000550061007100810D8B48DEF17F090EF91
:102F180017F0010E91EF17F0000E016E026A99EF9B
:102F280017F0000E026E040E016E120001C008F0C8
:102F380002C009F003C00AF004C00BF00506D8A0CF
:102F48000606052806E10628D8A4ADEF17F0AFEF6E
:102F580017F0BCEF17F0000E026E000E016E04EFC2
:102F680018F0084A092A0A4A0B2A0506D8A00606B4
:102F780008C0D9FF09C0DAFFDF50D8B4C6EF17F090
:102F8800C8EF17F0F3EF17F00AC0F6FF0BC0F7FF12
:102F98000800F5500009D8B4D4EF17F0D6EF17F0B1
:102FA800F3EF17F005500610D8B4DDEF17F0DFEF98
:102FB80017F0F3EF17F008C0D9FF09C0DAFFDF50A8
:102FC800076E0AC0F6FF0BC0F7FF0800F550071898
:102FD800D8B4F1EF17F0F3EF17F0B5EF17F008C01A
:102FE800D9FF09C0DAFFDF50076E0AC0F6FF0BC031
:102FF800F7FF0800F550075C016E026AD8A00206C8
:10300800120003500410D8B40CEF18F00EEF18F0AB
:1030180017EF18F003500410D8A415EF18F017EFA5
:1030280018F01CEF18F00150AAEC1CF069EF18F02A
:1030380020EE04F00350D9260450DA22DE50DE10C8
:10304800D8B429EF18F02BEF18F046EF18F020EE5F
:1030580004F00350D9260450DA2210EE02F003508F
:10306800E1260450E222DE50E65CE650800A096E52
:10307800DE50800A0958D8B044EF18F046EF18F02F
:1030880069EF18F020EE02F00350D9260450DA2236
:10309800DECF05F0DDCF06F003C0D9FF04C0DAFFAC
:1030A800DECF07F0DDCF08F005500724D96E0650B3
:1030B8000820DA6E01C0DFFF20EE02F00350D926A7
:1030C8000450DA22DE2A000EDD2212000001E3A1FC
:1030D80070EF18F072EF18F07CEF18F013C00AF0D8
:1030E80014C00BF011C00CF012C00DF0C3EC1BF0B3
:1030F80016BE81EF18F083EF18F089EF18F015C0AD
:103108001AF016C01BF08DEF18F0000E1B6E000EA3
:103118001A6E000E196E000E186E9FEF18F0000E52
:10312800026E200E016E11C003F012C004F005EC0F
:1031380018F0184A192A1A50185C1950800A176E84
:103148001B50800A1758D8A0ACEF18F0AEEF18F053
:1031580093EF18F00001E3B1B4EF18F0B6EF18F0F0
:10316800C0EF18F013C00AF014C00BF011C00CF037
:1031780012C00DF0C3EC1BF013C001F014C002F034
:1031880039EC1CF01A500124116E1B500220126EEB
:103198001200000E066E04BED6EF18F0D4EF18F039
:1031A800DCEF18F0036C041ED8B0042A010E066E7A
:1031B80002BEE3EF18F0E1EF18F0E9EF18F0016C48
:1031C800021ED8B0022A010E061A000E086E000E62
:1031D800076E03500410D8B4F4EF18F0F6EF18F0A7
:1031E8001EEF19F0010E056EFEEF18F0D8900336A9
:1031F8000436052A04AE03EF19F005EF19F0FAEFCB
:1032080018F0D890073608360350015C045002586D
:10321800D8A011EF19F013EF19F018EF19F00350B7
:10322800015E0450025A0780D89004320332052EFA
:1032380005EF19F00650D8B424EF19F026EF19F06D
:103248002AEF19F0076C081ED8B0082A07C001F049
:1032580008C002F01200000E066E02BE38EF19F028
:1032680036EF19F03EEF19F0016C021ED8B0022AB1
:10327800010E066E04BE45EF19F043EF19F049EF51
:1032880019F0036C041ED8B0042A03500410D8B4F3
:1032980050EF19F052EF19F076EF19F0010E056EA4
:1032A8005AEF19F0D89003360436052A04AE5FEFBA
:1032B80019F061EF19F056EF19F00350015C045052
:1032C8000258D8A06AEF19F06CEF19F070EF19F0F6
:1032D8000350015E0450025AD89004320332052E7E
:1032E80061EF19F00650D8B47CEF19F07EEF19F0B1
:1032F80082EF19F0016C021ED8B0022A01C001F059
:1033080002C002F01200000E0114096E000E021431
:103318000A6E800E03140B6E7F0E04140C6E095097
:103328000A100B100C10D8A49CEF19F09EEF19F09E
:10333800A6EF19F0000E016E000E026E000E036E6D
:10334800000E046E000E0514096E000E06140A6EB7
:10335800800E07140B6E7F0E08140C6E09500A10AD
:103368000B100C10D8A4BBEF19F0BDEF19F0C5EF86
:1033780019F0000E056E000E066E000E076E000EA8
:10338800086E055001180FE1065002180CE10750AD
:10339800031809E108500418D8B4D5EF19F0D7EF8D
:1033A80019F0DAEF19F0D890DBEF19F0D880120095
:1033B800000ED4EC1AF04E0E036EEB0EE82EFED77C
:1033C800032EFCD700F0C80E00D0E82EFDD7030E60
:1033D8009EEC1CF00D0E036EFC0EE82EFED7032E9D
:1033E800FCD7030E9EEC1CF0640EE82EFED7030EED
:1033F8009EEC1CF0020E9EEC1CF0020E9EEC1CF0E3
:10340800080E9EEC1CF0000E9EEC1CF00C0E9EECC0
:103418001CF0000E9EEC1CF0060E9EEC1CF0120038
:10342800B7C0BBF0B8C0BCF0000E0001DE6F000EE4
:10343800DD6F32EF1AF0B5C09FF0B6C0A0F0BB0E3A
:10344800A16F000EA26FB9C0A3F0BAC0A4F0A8EC97
:103458000CF000019F51DD27A051DE23BBC0F6FF11
:10346800BCC0F7FF0800F5500009D8A43EEF1AF0D9
:1034780040EF1AF01FEF1AF0DDC0B5F0DEC0B6F06D
:103488001200046E0404D8A44CEF1AF04EEF1AF0A0
:103498005DEF1AF003507F0F076E07380F0B066EAB
:1034A80007500F0B056E06509EEC1CF005509EEC65
:1034B8001CF0020E0418D8A464EF1AF066EF1AF094
:1034C80075EF1AF00350BF0F076E07380F0B066E23
:1034D80007500F0B056E06509EEC1CF005509EEC35
:1034E8001CF01200BF0E096EFF0E0A6E07C00BF02B
:1034F80008C00CF009500B260A500C220C500AE1A7
:103508001A0E0B5CD8A08BEF1AF08EEF1AF0010E92
:103518008FEF1AF0000E0D6E0E6A0D500E10D8B413
:1035280098EF1AF09AEF1AF0A1EF1AF0200E071090
:10353800076E0850086EA5EF1AF007C007F008C01C
:1035480008F0120003C007F004C008F001C009F039
:1035580002C00AF00750056E0850066E074A082A8E
:1035680005C0F6FF06C0F7FFF86A09C0D9FF0AC010
:10357800DAFF094A0A2A070EF76403D00800F55053
:1035880005D0F6CFE1FFF7CFE2FFE750DF6EDF505F
:10359800D8A4D1EF1AF0D3EF1AF0AEEF1AF0120058
:1035A800016E01A0DAEF1AF0DCEF1AF0DFEF1AF083
:1035B8008C80E0EF1AF08C9001A2E5EF1AF0E7EFAB
:1035C8001AF0EAEF1AF08C82EBEF1AF08C9201A451
:1035D800F0EF1AF0F2EF1AF0F5EF1AF08C84F6EF2C
:1035E8001AF08C9401A6FBEF1AF0FDEF1AF000EF29
:1035F8001BF08C8601EF1BF08C961200C10E0001A7
:10360800C56F000EC66FBDC0C7F0BEC0C8F0000EC3
:10361800CA6F000EC96F000ECC6F000ECB6FC70EBD
:10362800B56F000EB66FBFC0B7F0C0C0B8F0C50E1A
:10363800B96F000EBA6F14EC1AF00001C951BD251C
:10364800D96ECA51BE21DA6E000EDF6E1200010E6D
:10365800076E200E01180210D8B435EF1BF037EFB3
:103668001BF050EF1BF0F70E036EFF0E046E01C047
:1036780005F002C006F00350052604500622065045
:1036880009E1050E055CD8A04CEF1BF04EEF1BF0CE
:1036980050EF1BF0000E076E07C001F0026A12001F
:1036A800146E000EC26E14C013F013461346C250B7
:1036B8001318C30B1318C26EC280C282C2B267EF5E
:1036C8001BF069EF1BF062EF1BF0C290C3CF01F053
:1036D800C4CF02F0036A046A000ECAEC13F001C0FA
:1036E8000FF002C010F003C011F004C012F0120075
:1036F800046E04500F0B026E0450F00B036E8C889E
:1037080003380F0BD4EC1AF08C8AC80E00D0E82EC0
:10371800FDD78C9AC80E00D0E82EFDD70250D4EC05
:103728001AF08C8AC80E00D0E82EFDD78C9AC80EE5
:1037380000D0E82EFDD71200000E321A000E331A00
:10374800000E341A800E351A2EC001F02FC002F078
:1037580030C003F031C004F032C005F033C006F0C9
:1037680034C007F035C008F048EC0AF001C02EF06C
:1037780002C02FF003C030F004C031F01200000E78
:10378800106E000E0F6ED4EF1BF00EC001F0026A2F
:103798000CC003F00DC004F005EC18F00F4A102A15
:1037A8000F500A24D96E10500B20DA6EDF500E6EBF
:1037B8000E50D8A4E2EF1BF0E4EF1BF0C9EF1BF0AA
:1037C8001200BF0E036EFF0E046E01C005F002C0AA
:1037D80006F0035005260450062206500AE11A0E88
:1037E800055CD8A0FAEF1BF0FDEF1BF0010EFEEF11
:1037F8001BF0000E016E026A120001500210031045
:103808000410D8B40AEF1CF00CEF1CF014EF1CF0F5
:10381800000E011A000E021A000E031A800E041A76
:1038280001C001F002C002F003C003F004C004F0BC
:103838001200D00E036EFF0E046E01C005F002C028
:1038480006F0035005260450062206500AE10A0E27
:10385800055CD8A032EF1CF035EF1CF0010E36EFF6
:103868001CF0000E016E026A120001C003F002C0D3
:1038780004F041EF1CF0014A022A01C0D9FF02C03E
:10388800DAFFDF50D8A44BEF1CF04DEF1CF03FEFF0
:103898001CF00350015C016E04500258026E1200C5
:1038A8005FEF1CF005C0D9FF06C0DAFFDF507CECE3
:1038B8001BF0054A062A05C0D9FF06C0DAFFDF500B
:1038C800D8A469EF1CF06BEF1CF056EF1CF0120047
:1038D80001500302F3CF05F0F4CF06F001500402C3
:1038E800F350062602500302F350062605C001F0E5
:1038F80006C002F0120001EE00F0610EEE6AE80662
:10390800FDE100EECDF0290EEE6AE806FDE1000EBD
:10391800F86E00016CEF15F0CF0EC116000EC26EE6
:10392800C050C70B1809C06EC050F80B0509C06E0F
:10393800C08E1200026E8C980250D4EC1AF08C8A59
:0E394800C80E00D0E82EFDD78C9A1200120097
:020000040020DA
:08000000FFFFFFFFFFFFFFFF00
:020000040030CA
:0E000000000C191EFF8385FF0FC00FE00F409C
:00000001FF
